{
  "contractName": "Appointment",
  "abi": [
    {
      "inputs": [
        {
          "internalType": "address",
          "name": "",
          "type": "address"
        },
        {
          "internalType": "uint256",
          "name": "",
          "type": "uint256"
        }
      ],
      "name": "DOCTORS",
      "outputs": [
        {
          "internalType": "string",
          "name": "date",
          "type": "string"
        },
        {
          "internalType": "string",
          "name": "time",
          "type": "string"
        },
        {
          "internalType": "address",
          "name": "patient",
          "type": "address"
        },
        {
          "internalType": "string",
          "name": "patient_name",
          "type": "string"
        },
        {
          "internalType": "address",
          "name": "doctor",
          "type": "address"
        },
        {
          "internalType": "string",
          "name": "doctor_name",
          "type": "string"
        },
        {
          "internalType": "string",
          "name": "status",
          "type": "string"
        }
      ],
      "stateMutability": "view",
      "type": "function",
      "constant": true
    },
    {
      "inputs": [
        {
          "internalType": "address",
          "name": "",
          "type": "address"
        },
        {
          "internalType": "uint256",
          "name": "",
          "type": "uint256"
        }
      ],
      "name": "PATIENTS",
      "outputs": [
        {
          "internalType": "string",
          "name": "date",
          "type": "string"
        },
        {
          "internalType": "string",
          "name": "time",
          "type": "string"
        },
        {
          "internalType": "address",
          "name": "patient",
          "type": "address"
        },
        {
          "internalType": "string",
          "name": "patient_name",
          "type": "string"
        },
        {
          "internalType": "address",
          "name": "doctor",
          "type": "address"
        },
        {
          "internalType": "string",
          "name": "doctor_name",
          "type": "string"
        },
        {
          "internalType": "string",
          "name": "status",
          "type": "string"
        }
      ],
      "stateMutability": "view",
      "type": "function",
      "constant": true
    },
    {
      "inputs": [
        {
          "internalType": "string",
          "name": "str1",
          "type": "string"
        },
        {
          "internalType": "string",
          "name": "str2",
          "type": "string"
        }
      ],
      "name": "compare",
      "outputs": [
        {
          "internalType": "bool",
          "name": "",
          "type": "bool"
        }
      ],
      "stateMutability": "pure",
      "type": "function",
      "constant": true
    },
    {
      "inputs": [
        {
          "internalType": "uint256",
          "name": "_index",
          "type": "uint256"
        },
        {
          "internalType": "string",
          "name": "_time",
          "type": "string"
        }
      ],
      "name": "confirm_appointment",
      "outputs": [],
      "stateMutability": "nonpayable",
      "type": "function"
    },
    {
      "inputs": [],
      "name": "get_pending_requests",
      "outputs": [
        {
          "components": [
            {
              "internalType": "string",
              "name": "date",
              "type": "string"
            },
            {
              "internalType": "string",
              "name": "time",
              "type": "string"
            },
            {
              "internalType": "address",
              "name": "patient",
              "type": "address"
            },
            {
              "internalType": "string",
              "name": "patient_name",
              "type": "string"
            },
            {
              "internalType": "address",
              "name": "doctor",
              "type": "address"
            },
            {
              "internalType": "string",
              "name": "doctor_name",
              "type": "string"
            },
            {
              "internalType": "string",
              "name": "status",
              "type": "string"
            }
          ],
          "internalType": "struct Appointment.appointment[]",
          "name": "",
          "type": "tuple[]"
        }
      ],
      "stateMutability": "view",
      "type": "function",
      "constant": true
    },
    {
      "inputs": [],
      "name": "get_confirmed_appointments",
      "outputs": [
        {
          "components": [
            {
              "internalType": "string",
              "name": "date",
              "type": "string"
            },
            {
              "internalType": "string",
              "name": "time",
              "type": "string"
            },
            {
              "internalType": "address",
              "name": "patient",
              "type": "address"
            },
            {
              "internalType": "string",
              "name": "patient_name",
              "type": "string"
            },
            {
              "internalType": "address",
              "name": "doctor",
              "type": "address"
            },
            {
              "internalType": "string",
              "name": "doctor_name",
              "type": "string"
            },
            {
              "internalType": "string",
              "name": "status",
              "type": "string"
            }
          ],
          "internalType": "struct Appointment.appointment[]",
          "name": "",
          "type": "tuple[]"
        }
      ],
      "stateMutability": "view",
      "type": "function",
      "constant": true
    },
    {
      "inputs": [
        {
          "internalType": "uint256",
          "name": "_index",
          "type": "uint256"
        }
      ],
      "name": "reject_pending_request",
      "outputs": [],
      "stateMutability": "nonpayable",
      "type": "function"
    },
    {
      "inputs": [
        {
          "internalType": "uint256",
          "name": "_index",
          "type": "uint256"
        }
      ],
      "name": "cancel_confirmed_appointment",
      "outputs": [],
      "stateMutability": "nonpayable",
      "type": "function"
    },
    {
      "inputs": [
        {
          "internalType": "uint256",
          "name": "_index",
          "type": "uint256"
        }
      ],
      "name": "mark_as_complete",
      "outputs": [],
      "stateMutability": "nonpayable",
      "type": "function"
    },
    {
      "inputs": [
        {
          "internalType": "string",
          "name": "_patient",
          "type": "string"
        },
        {
          "internalType": "string",
          "name": "_doctor",
          "type": "string"
        },
        {
          "internalType": "string",
          "name": "_date",
          "type": "string"
        },
        {
          "internalType": "address",
          "name": "docAddr",
          "type": "address"
        }
      ],
      "name": "request_appointment",
      "outputs": [],
      "stateMutability": "nonpayable",
      "type": "function"
    },
    {
      "inputs": [],
      "name": "patient_get_all_appointments",
      "outputs": [
        {
          "components": [
            {
              "internalType": "string",
              "name": "date",
              "type": "string"
            },
            {
              "internalType": "string",
              "name": "time",
              "type": "string"
            },
            {
              "internalType": "address",
              "name": "patient",
              "type": "address"
            },
            {
              "internalType": "string",
              "name": "patient_name",
              "type": "string"
            },
            {
              "internalType": "address",
              "name": "doctor",
              "type": "address"
            },
            {
              "internalType": "string",
              "name": "doctor_name",
              "type": "string"
            },
            {
              "internalType": "string",
              "name": "status",
              "type": "string"
            }
          ],
          "internalType": "struct Appointment.appointment[]",
          "name": "",
          "type": "tuple[]"
        }
      ],
      "stateMutability": "view",
      "type": "function",
      "constant": true
    },
    {
      "inputs": [],
      "name": "patient_get_pending_requests",
      "outputs": [
        {
          "components": [
            {
              "internalType": "string",
              "name": "date",
              "type": "string"
            },
            {
              "internalType": "string",
              "name": "time",
              "type": "string"
            },
            {
              "internalType": "address",
              "name": "patient",
              "type": "address"
            },
            {
              "internalType": "string",
              "name": "patient_name",
              "type": "string"
            },
            {
              "internalType": "address",
              "name": "doctor",
              "type": "address"
            },
            {
              "internalType": "string",
              "name": "doctor_name",
              "type": "string"
            },
            {
              "internalType": "string",
              "name": "status",
              "type": "string"
            }
          ],
          "internalType": "struct Appointment.appointment[]",
          "name": "",
          "type": "tuple[]"
        }
      ],
      "stateMutability": "view",
      "type": "function",
      "constant": true
    },
    {
      "inputs": [],
      "name": "patient_get_confirmed_appointments",
      "outputs": [
        {
          "components": [
            {
              "internalType": "string",
              "name": "date",
              "type": "string"
            },
            {
              "internalType": "string",
              "name": "time",
              "type": "string"
            },
            {
              "internalType": "address",
              "name": "patient",
              "type": "address"
            },
            {
              "internalType": "string",
              "name": "patient_name",
              "type": "string"
            },
            {
              "internalType": "address",
              "name": "doctor",
              "type": "address"
            },
            {
              "internalType": "string",
              "name": "doctor_name",
              "type": "string"
            },
            {
              "internalType": "string",
              "name": "status",
              "type": "string"
            }
          ],
          "internalType": "struct Appointment.appointment[]",
          "name": "",
          "type": "tuple[]"
        }
      ],
      "stateMutability": "view",
      "type": "function",
      "constant": true
    },
    {
      "inputs": [
        {
          "internalType": "uint256",
          "name": "_index",
          "type": "uint256"
        }
      ],
      "name": "patient_delete_pending_request",
      "outputs": [],
      "stateMutability": "nonpayable",
      "type": "function"
    },
    {
      "inputs": [
        {
          "internalType": "uint256",
          "name": "_index",
          "type": "uint256"
        }
      ],
      "name": "patient_cancel_confirmed_appointment",
      "outputs": [],
      "stateMutability": "nonpayable",
      "type": "function"
    }
  ],
  "bytecode": "0x608060405234801561001057600080fd5b506139ff806100206000396000f3fe608060405234801561001057600080fd5b50600436106100f55760003560e01c80637dfe675211610097578063c515795011610066578063c5157950146101ed578063eaaf4be9146101f5578063eff44a9714610208578063faaae02314610210576100f5565b80637dfe6752146101ac57806387a1e65d146101bf57806394557632146101c75780639cb5378a146101da576100f5565b80633a96fdd7116100d35780633a96fdd7146101405780634831bc61146101605780636936b545146101865780637745ab9614610199576100f5565b80630299e0a3146100fa57806316b170c61461010f57806320198f931461012d575b600080fd5b61010d6101083660046136b3565b610218565b005b6101176103fd565b604051610124919061375b565b60405180910390f35b61010d61013b3660046136b3565b61076d565b61015361014e3660046135bd565b6109a6565b6040516101249190613859565b61017361016e366004613594565b6109ff565b6040516101249796959493929190613864565b61010d6101943660046136b3565b610d24565b6101736101a7366004613594565b610db9565b61010d6101ba36600461361e565b610dd5565b61011761108b565b61010d6101d53660046136b3565b6115d7565b61010d6101e83660046136b3565b611790565b61011761193d565b61010d6102033660046136cb565b611e83565b6101176120f5565b610117612579565b6000610245826040518060400160405280600981526020016850656e6469656e746560b81b8152506129fc565b905060405180604001604052806009815260200168456c696d696e61646f60b81b815250600080336001600160a01b03166001600160a01b0316815260200190815260200160002082815481106102ac57634e487b7160e01b600052603260045260246000fd5b906000526020600020906007020160060190805190602001906102d0929190613355565b5033600090815260208190526040812080548390811061030057634e487b7160e01b600052603260045260246000fd5b6000918252602080832060046007909302019190910154338352908290526040822080546001600160a01b039092169350908490811061035057634e487b7160e01b600052603260045260246000fd5b9060005260206000209060070201600001805461036c90613947565b80601f016020809104026020016040519081016040528092919081815260200182805461039890613947565b80156103e55780601f106103ba576101008083540402835291602001916103e5565b820191906000526020600020905b8154815290600101906020018083116103c857829003601f168201915b505050505090506103f7823383612b35565b50505050565b33600090815260208181526040808320805482518185028101850190935280835260609492939192909184015b8282101561076457838290600052602060002090600702016040518060e001604052908160008201805461045d90613947565b80601f016020809104026020016040519081016040528092919081815260200182805461048990613947565b80156104d65780601f106104ab576101008083540402835291602001916104d6565b820191906000526020600020905b8154815290600101906020018083116104b957829003601f168201915b505050505081526020016001820180546104ef90613947565b80601f016020809104026020016040519081016040528092919081815260200182805461051b90613947565b80156105685780601f1061053d57610100808354040283529160200191610568565b820191906000526020600020905b81548152906001019060200180831161054b57829003601f168201915b505050918352505060028201546001600160a01b0316602082015260038201805460409092019161059890613947565b80601f01602080910402602001604051908101604052809291908181526020018280546105c490613947565b80156106115780601f106105e657610100808354040283529160200191610611565b820191906000526020600020905b8154815290600101906020018083116105f457829003601f168201915b505050918352505060048201546001600160a01b0316602082015260058201805460409092019161064190613947565b80601f016020809104026020016040519081016040528092919081815260200182805461066d90613947565b80156106ba5780601f1061068f576101008083540402835291602001916106ba565b820191906000526020600020905b81548152906001019060200180831161069d57829003601f168201915b505050505081526020016006820180546106d390613947565b80601f01602080910402602001604051908101604052809291908181526020018280546106ff90613947565b801561074c5780601f106107215761010080835404028352916020019161074c565b820191906000526020600020905b81548152906001019060200180831161072f57829003601f168201915b5050505050815250508152602001906001019061042a565b50505050905090565b600061079b826040518060400160405280600a815260200169436f6e6669726d61646f60b01b815250612d0d565b90506040518060400160405280600a815260200169436f6d706c657461646f60b01b81525060016000336001600160a01b03166001600160a01b03168152602001908152602001600020828154811061080457634e487b7160e01b600052603260045260246000fd5b90600052602060002090600702016006019080519060200190610828929190613355565b5033600090815260016020526040812080548390811061085857634e487b7160e01b600052603260045260246000fd5b600091825260208083206002600790930201919091015433835260019091526040822080546001600160a01b03909216935090849081106108a957634e487b7160e01b600052603260045260246000fd5b906000526020600020906007020160000180546108c590613947565b80601f01602080910402602001604051908101604052809291908181526020018280546108f190613947565b801561093e5780601f106109135761010080835404028352916020019161093e565b820191906000526020600020905b81548152906001019060200180831161092157829003601f168201915b505050505090506103f782336040518060400160405280600a815260200169436f6e6669726d61646f60b01b8152506040518060400160405280600a815260200169436f6d706c657461646f60b01b8152508560405180602001604052806000815250612d9d565b6000816040516020016109b9919061373f565b60405160208183030381529060405280519060200120836040516020016109e0919061373f565b6040516020818303038152906040528051906020012014905092915050565b60006020528160005260406000208181548110610a1b57600080fd5b906000526020600020906007020160009150915050806000018054610a3f90613947565b80601f0160208091040260200160405190810160405280929190818152602001828054610a6b90613947565b8015610ab85780601f10610a8d57610100808354040283529160200191610ab8565b820191906000526020600020905b815481529060010190602001808311610a9b57829003601f168201915b505050505090806001018054610acd90613947565b80601f0160208091040260200160405190810160405280929190818152602001828054610af990613947565b8015610b465780601f10610b1b57610100808354040283529160200191610b46565b820191906000526020600020905b815481529060010190602001808311610b2957829003601f168201915b505050600284015460038501805494956001600160a01b03909216949193509150610b7090613947565b80601f0160208091040260200160405190810160405280929190818152602001828054610b9c90613947565b8015610be95780601f10610bbe57610100808354040283529160200191610be9565b820191906000526020600020905b815481529060010190602001808311610bcc57829003601f168201915b505050600484015460058501805494956001600160a01b03909216949193509150610c1390613947565b80601f0160208091040260200160405190810160405280929190818152602001828054610c3f90613947565b8015610c8c5780601f10610c6157610100808354040283529160200191610c8c565b820191906000526020600020905b815481529060010190602001808311610c6f57829003601f168201915b505050505090806006018054610ca190613947565b80601f0160208091040260200160405190810160405280929190818152602001828054610ccd90613947565b8015610d1a5780601f10610cef57610100808354040283529160200191610d1a565b820191906000526020600020905b815481529060010190602001808311610cfd57829003601f168201915b5050505050905087565b6000610d52826040518060400160405280600a815260200169436f6e6669726d61646f60b01b8152506129fc565b90506040518060400160405280600981526020016843616e63656c61646f60b81b815250600080336001600160a01b03166001600160a01b0316815260200190815260200160002082815481106102ac57634e487b7160e01b600052603260045260246000fd5b60016020528160005260406000208181548110610a1b57600080fd5b6001600160a01b0381166000818152600160208181526040808420815160e08101835288815282518085018452868152818501523381840152606081018b9052608081019690965260a086018990528151808301909252600982526850656e6469656e746560b81b8284015260c08601919091528054928301815583529182902083518051600790930290910192610e7292849290910190613355565b506020828101518051610e8b9260018501920190613355565b5060408201516002820180546001600160a01b0319166001600160a01b0390921691909117905560608201518051610ecd916003840191602090910190613355565b5060808201516004820180546001600160a01b0319166001600160a01b0390921691909117905560a08201518051610f0f916005840191602090910190613355565b5060c08201518051610f2b916006840191602090910190613355565b505033600081815260208181526040808320815160e081018352888152825180850184528581528185015280830195909552606085018a90526001600160a01b038716608086015260a085018990528151808301909252600982526850656e6469656e746560b81b8284015260c08501919091528054600181018255908352918190208351805194955060079093020192610fc99284920190613355565b506020828101518051610fe29260018501920190613355565b5060408201516002820180546001600160a01b0319166001600160a01b0390921691909117905560608201518051611024916003840191602090910190613355565b5060808201516004820180546001600160a01b0319166001600160a01b0390921691909117905560a08201518051611066916005840191602090910190613355565b5060c08201518051611082916006840191602090910190613355565b50505050505050565b606060006110bc60006040518060400160405280600981526020016850656e6469656e746560b81b81525033612fa5565b67ffffffffffffffff8111156110e257634e487b7160e01b600052604160045260246000fd5b60405190808252806020026020018201604052801561111b57816020015b6111086133d9565b8152602001906001900390816111005790505b5090506000805b336000908152602081905260409020548110156115cf57336000908152602081905260409020805461122e91908390811061116d57634e487b7160e01b600052603260045260246000fd5b9060005260206000209060070201600601805461118990613947565b80601f01602080910402602001604051908101604052809291908181526020018280546111b590613947565b80156112025780601f106111d757610100808354040283529160200191611202565b820191906000526020600020905b8154815290600101906020018083116111e557829003601f168201915b50505050506040518060400160405280600981526020016850656e6469656e746560b81b8152506109a6565b156115bd5733600090815260208190526040902080548290811061126257634e487b7160e01b600052603260045260246000fd5b90600052602060002090600702016040518060e001604052908160008201805461128b90613947565b80601f01602080910402602001604051908101604052809291908181526020018280546112b790613947565b80156113045780601f106112d957610100808354040283529160200191611304565b820191906000526020600020905b8154815290600101906020018083116112e757829003601f168201915b5050505050815260200160018201805461131d90613947565b80601f016020809104026020016040519081016040528092919081815260200182805461134990613947565b80156113965780601f1061136b57610100808354040283529160200191611396565b820191906000526020600020905b81548152906001019060200180831161137957829003601f168201915b505050918352505060028201546001600160a01b031660208201526003820180546040909201916113c690613947565b80601f01602080910402602001604051908101604052809291908181526020018280546113f290613947565b801561143f5780601f106114145761010080835404028352916020019161143f565b820191906000526020600020905b81548152906001019060200180831161142257829003601f168201915b505050918352505060048201546001600160a01b0316602082015260058201805460409092019161146f90613947565b80601f016020809104026020016040519081016040528092919081815260200182805461149b90613947565b80156114e85780601f106114bd576101008083540402835291602001916114e8565b820191906000526020600020905b8154815290600101906020018083116114cb57829003601f168201915b5050505050815260200160068201805461150190613947565b80601f016020809104026020016040519081016040528092919081815260200182805461152d90613947565b801561157a5780601f1061154f5761010080835404028352916020019161157a565b820191906000526020600020905b81548152906001019060200180831161155d57829003601f168201915b5050505050815250508383815181106115a357634e487b7160e01b600052603260045260246000fd5b602002602001018190525081806115b990613982565b9250505b806115c781613982565b915050611122565b509091505090565b6000611605826040518060400160405280600a815260200169436f6e6669726d61646f60b01b815250612d0d565b336000908152600160205260408120805492935090918390811061163957634e487b7160e01b600052603260045260246000fd5b600091825260208083206002600790930201919091015433835260019091526040822080546001600160a01b039092169350908490811061168a57634e487b7160e01b600052603260045260246000fd5b906000526020600020906007020160000180546116a690613947565b80601f01602080910402602001604051908101604052809291908181526020018280546116d290613947565b801561171f5780601f106116f45761010080835404028352916020019161171f565b820191906000526020600020905b81548152906001019060200180831161170257829003601f168201915b5050505050905061178682336040518060400160405280600a815260200169436f6e6669726d61646f60b01b8152506040518060400160405280600981526020016843616e63656c61646f60b81b8152508560405180602001604052806000815250612d9d565b6103f783336130c5565b60006117bd826040518060400160405280600981526020016850656e6469656e746560b81b815250612d0d565b33600090815260016020526040812080549293509091839081106117f157634e487b7160e01b600052603260045260246000fd5b600091825260208083206002600790930201919091015433835260019091526040822080546001600160a01b039092169350908490811061184257634e487b7160e01b600052603260045260246000fd5b9060005260206000209060070201600001805461185e90613947565b80601f016020809104026020016040519081016040528092919081815260200182805461188a90613947565b80156118d75780601f106118ac576101008083540402835291602001916118d7565b820191906000526020600020905b8154815290600101906020018083116118ba57829003601f168201915b5050505050905061178682336040518060400160405280600981526020016850656e6469656e746560b81b8152506040518060400160405280600981526020016852656368617a61646f60b81b8152508560405180602001604052806000815250612d9d565b6060600061196f60006040518060400160405280600a815260200169436f6e6669726d61646f60b01b81525033612fa5565b67ffffffffffffffff81111561199557634e487b7160e01b600052604160045260246000fd5b6040519080825280602002602001820160405280156119ce57816020015b6119bb6133d9565b8152602001906001900390816119b35790505b5090506000805b336000908152602081905260409020548110156115cf573360009081526020819052604090208054611ae2919083908110611a2057634e487b7160e01b600052603260045260246000fd5b90600052602060002090600702016006018054611a3c90613947565b80601f0160208091040260200160405190810160405280929190818152602001828054611a6890613947565b8015611ab55780601f10611a8a57610100808354040283529160200191611ab5565b820191906000526020600020905b815481529060010190602001808311611a9857829003601f168201915b50505050506040518060400160405280600a815260200169436f6e6669726d61646f60b01b8152506109a6565b15611e7157336000908152602081905260409020805482908110611b1657634e487b7160e01b600052603260045260246000fd5b90600052602060002090600702016040518060e0016040529081600082018054611b3f90613947565b80601f0160208091040260200160405190810160405280929190818152602001828054611b6b90613947565b8015611bb85780601f10611b8d57610100808354040283529160200191611bb8565b820191906000526020600020905b815481529060010190602001808311611b9b57829003601f168201915b50505050508152602001600182018054611bd190613947565b80601f0160208091040260200160405190810160405280929190818152602001828054611bfd90613947565b8015611c4a5780601f10611c1f57610100808354040283529160200191611c4a565b820191906000526020600020905b815481529060010190602001808311611c2d57829003601f168201915b505050918352505060028201546001600160a01b03166020820152600382018054604090920191611c7a90613947565b80601f0160208091040260200160405190810160405280929190818152602001828054611ca690613947565b8015611cf35780601f10611cc857610100808354040283529160200191611cf3565b820191906000526020600020905b815481529060010190602001808311611cd657829003601f168201915b505050918352505060048201546001600160a01b03166020820152600582018054604090920191611d2390613947565b80601f0160208091040260200160405190810160405280929190818152602001828054611d4f90613947565b8015611d9c5780601f10611d7157610100808354040283529160200191611d9c565b820191906000526020600020905b815481529060010190602001808311611d7f57829003601f168201915b50505050508152602001600682018054611db590613947565b80601f0160208091040260200160405190810160405280929190818152602001828054611de190613947565b8015611e2e5780601f10611e0357610100808354040283529160200191611e2e565b820191906000526020600020905b815481529060010190602001808311611e1157829003601f168201915b505050505081525050838381518110611e5757634e487b7160e01b600052603260045260246000fd5b60200260200101819052508180611e6d90613982565b9250505b80611e7b81613982565b9150506119d5565b6000611eb0836040518060400160405280600981526020016850656e6469656e746560b81b815250612d0d565b3360009081526001602052604090208054919250839183908110611ee457634e487b7160e01b600052603260045260246000fd5b90600052602060002090600702016001019080519060200190611f08929190613355565b50604080518082018252600a815269436f6e6669726d61646f60b01b602080830191909152336000908152600190915291909120805483908110611f5c57634e487b7160e01b600052603260045260246000fd5b90600052602060002090600702016006019080519060200190611f80929190613355565b50336000908152600160205260408120805483908110611fb057634e487b7160e01b600052603260045260246000fd5b600091825260208083206002600790930201919091015433835260019091526040822080546001600160a01b039092169350908490811061200157634e487b7160e01b600052603260045260246000fd5b9060005260206000209060070201600001805461201d90613947565b80601f016020809104026020016040519081016040528092919081815260200182805461204990613947565b80156120965780601f1061206b57610100808354040283529160200191612096565b820191906000526020600020905b81548152906001019060200180831161207957829003601f168201915b505050505090506120ee82336040518060400160405280600981526020016850656e6469656e746560b81b8152506040518060400160405280600a815260200169436f6e6669726d61646f60b01b8152508589612d9d565b5050505050565b6060600061212760016040518060400160405280600a815260200169436f6e6669726d61646f60b01b81525033612fa5565b67ffffffffffffffff81111561214d57634e487b7160e01b600052604160045260246000fd5b60405190808252806020026020018201604052801561218657816020015b6121736133d9565b81526020019060019003908161216b5790505b5090506000805b336000908152600160205260409020548110156115cf5733600090815260016020526040902080546121d8919083908110611a2057634e487b7160e01b600052603260045260246000fd5b156125675733600090815260016020526040902080548290811061220c57634e487b7160e01b600052603260045260246000fd5b90600052602060002090600702016040518060e001604052908160008201805461223590613947565b80601f016020809104026020016040519081016040528092919081815260200182805461226190613947565b80156122ae5780601f10612283576101008083540402835291602001916122ae565b820191906000526020600020905b81548152906001019060200180831161229157829003601f168201915b505050505081526020016001820180546122c790613947565b80601f01602080910402602001604051908101604052809291908181526020018280546122f390613947565b80156123405780601f1061231557610100808354040283529160200191612340565b820191906000526020600020905b81548152906001019060200180831161232357829003601f168201915b505050918352505060028201546001600160a01b0316602082015260038201805460409092019161237090613947565b80601f016020809104026020016040519081016040528092919081815260200182805461239c90613947565b80156123e95780601f106123be576101008083540402835291602001916123e9565b820191906000526020600020905b8154815290600101906020018083116123cc57829003601f168201915b505050918352505060048201546001600160a01b0316602082015260058201805460409092019161241990613947565b80601f016020809104026020016040519081016040528092919081815260200182805461244590613947565b80156124925780601f1061246757610100808354040283529160200191612492565b820191906000526020600020905b81548152906001019060200180831161247557829003601f168201915b505050505081526020016006820180546124ab90613947565b80601f01602080910402602001604051908101604052809291908181526020018280546124d790613947565b80156125245780601f106124f957610100808354040283529160200191612524565b820191906000526020600020905b81548152906001019060200180831161250757829003601f168201915b50505050508152505083838151811061254d57634e487b7160e01b600052603260045260246000fd5b6020026020010181905250818061256390613982565b9250505b8061257181613982565b91505061218d565b606060006125aa60016040518060400160405280600981526020016850656e6469656e746560b81b81525033612fa5565b67ffffffffffffffff8111156125d057634e487b7160e01b600052604160045260246000fd5b60405190808252806020026020018201604052801561260957816020015b6125f66133d9565b8152602001906001900390816125ee5790505b5090506000805b336000908152600160205260409020548110156115cf57336000908152600160205260409020805461265b91908390811061116d57634e487b7160e01b600052603260045260246000fd5b156129ea5733600090815260016020526040902080548290811061268f57634e487b7160e01b600052603260045260246000fd5b90600052602060002090600702016040518060e00160405290816000820180546126b890613947565b80601f01602080910402602001604051908101604052809291908181526020018280546126e490613947565b80156127315780601f1061270657610100808354040283529160200191612731565b820191906000526020600020905b81548152906001019060200180831161271457829003601f168201915b5050505050815260200160018201805461274a90613947565b80601f016020809104026020016040519081016040528092919081815260200182805461277690613947565b80156127c35780601f10612798576101008083540402835291602001916127c3565b820191906000526020600020905b8154815290600101906020018083116127a657829003601f168201915b505050918352505060028201546001600160a01b031660208201526003820180546040909201916127f390613947565b80601f016020809104026020016040519081016040528092919081815260200182805461281f90613947565b801561286c5780601f106128415761010080835404028352916020019161286c565b820191906000526020600020905b81548152906001019060200180831161284f57829003601f168201915b505050918352505060048201546001600160a01b0316602082015260058201805460409092019161289c90613947565b80601f01602080910402602001604051908101604052809291908181526020018280546128c890613947565b80156129155780601f106128ea57610100808354040283529160200191612915565b820191906000526020600020905b8154815290600101906020018083116128f857829003601f168201915b5050505050815260200160068201805461292e90613947565b80601f016020809104026020016040519081016040528092919081815260200182805461295a90613947565b80156129a75780601f1061297c576101008083540402835291602001916129a7565b820191906000526020600020905b81548152906001019060200180831161298a57829003601f168201915b5050505050815250508383815181106129d057634e487b7160e01b600052603260045260246000fd5b602002602001018190525081806129e690613982565b9250505b806129f481613982565b915050612610565b60008080805b33600090815260208190526040902054811015612b2c573360009081526020819052604090208054612aed919083908110612a4d57634e487b7160e01b600052603260045260246000fd5b90600052602060002090600702016006018054612a6990613947565b80601f0160208091040260200160405190810160405280929190818152602001828054612a9590613947565b8015612ae25780601f10612ab757610100808354040283529160200191612ae2565b820191906000526020600020905b815481529060010190602001808311612ac557829003601f168201915b5050505050866109a6565b15612b1a5782612afc81613982565b9350869050612b0c600185613904565b1415612b1a57809150612b2c565b80612b2481613982565b915050612a02565b50949350505050565b6001600160a01b038316600090815260016020526040812054612b599060046138ec565b905060005b6001600160a01b038516600090815260016020526040902054811015612ce2576001600160a01b03858116600090815260016020526040902080549186169183908110612bbb57634e487b7160e01b600052603260045260246000fd5b60009182526020909120600260079092020101546001600160a01b0316148015612cc357506001600160a01b03851660009081526001602052604090208054612cbd919083908110612c1d57634e487b7160e01b600052603260045260246000fd5b90600052602060002090600702016000018054612c3990613947565b80601f0160208091040260200160405190810160405280929190818152602001828054612c6590613947565b8015612cb25780601f10612c8757610100808354040283529160200191612cb2565b820191906000526020600020905b815481529060010190602001808311612c9557829003601f168201915b5050505050846109a6565b15156001145b15612cd057809150612ce2565b80612cda81613982565b915050612b5e565b506001600160a01b0384166000908152600160205260409020548110156103f7576103f781856130c5565b60008080805b33600090815260016020526040902054811015612b2c573360009081526001602052604090208054612d5e919083908110612a4d57634e487b7160e01b600052603260045260246000fd5b15612d8b5782612d6d81613982565b9350869050612d7d600185613904565b1415612d8b57809150612b2c565b80612d9581613982565b915050612d13565b60005b6001600160a01b038716600090815260208190526040902054811015611082576001600160a01b03878116600090815260208190526040902080549188169183908110612dfd57634e487b7160e01b600052603260045260246000fd5b60009182526020909120600460079092020101546001600160a01b0316148015612e6557506001600160a01b03871660009081526020819052604090208054612e5f919083908110612c1d57634e487b7160e01b600052603260045260246000fd5b15156001145b8015612eaf57506001600160a01b03871660009081526020819052604090208054612ea9919083908110612a4d57634e487b7160e01b600052603260045260246000fd5b15156001145b15612f9357612ecd82604051806020016040528060008152506109a6565b612f32576001600160a01b0387166000908152602081905260409020805483919083908110612f0c57634e487b7160e01b600052603260045260246000fd5b90600052602060002090600702016001019080519060200190612f30929190613355565b505b6001600160a01b0387166000908152602081905260409020805485919083908110612f6d57634e487b7160e01b600052603260045260246000fd5b90600052602060002090600702016006019080519060200190612f91929190613355565b505b80612f9d81613982565b915050612da0565b600080846130385760005b6001600160a01b038416600090815260208190526040902054811015613032576001600160a01b0384166000908152602081905260409020805461300d919083908110612a4d57634e487b7160e01b600052603260045260246000fd5b15613020578161301c81613982565b9250505b8061302a81613982565b915050612fb0565b506130bd565b60005b6001600160a01b038416600090815260016020526040902054811015612b2c576001600160a01b03841660009081526001602052604090208054613098919083908110612a4d57634e487b7160e01b600052603260045260246000fd5b156130ab57816130a781613982565b9250505b806130b581613982565b91505061303b565b949350505050565b815b6001600160a01b0382166000908152600160208190526040909120546130ed9190613904565b81101561329b576001600160a01b03821660009081526001602081905260409091209061311b9083906138ec565b8154811061313957634e487b7160e01b600052603260045260246000fd5b906000526020600020906007020160016000846001600160a01b03166001600160a01b03168152602001908152602001600020828154811061318b57634e487b7160e01b600052603260045260246000fd5b906000526020600020906007020160008201816000019080546131ad90613947565b6131b8929190613428565b5060018201816001019080546131cd90613947565b6131d8929190613428565b5060028281015490820180546001600160a01b0319166001600160a01b03909216919091179055600380830180549183019161321390613947565b61321e929190613428565b5060048281015490820180546001600160a01b0319166001600160a01b03909216919091179055600580830180549183019161325990613947565b613264929190613428565b50600682018160060190805461327990613947565b613284929190613428565b50905050808061329390613982565b9150506130c7565b506001600160a01b03811660009081526001602052604090208054806132d157634e487b7160e01b600052603160045260246000fd5b600082815260208120600019909201916007830201906132f182826134a3565b6132ff6001830160006134a3565b6002820180546001600160a01b031916905561331f6003830160006134a3565b6004820180546001600160a01b031916905561333f6005830160006134a3565b61334d6006830160006134a3565b505090555050565b82805461336190613947565b90600052602060002090601f01602090048101928261338357600085556133c9565b82601f1061339c57805160ff19168380011785556133c9565b828001600101855582156133c9579182015b828111156133c95782518255916020019190600101906133ae565b506133d59291506134e2565b5090565b6040518060e00160405280606081526020016060815260200160006001600160a01b031681526020016060815260200160006001600160a01b0316815260200160608152602001606081525090565b82805461343490613947565b90600052602060002090601f01602090048101928261345657600085556133c9565b82601f1061346757805485556133c9565b828001600101855582156133c957600052602060002091601f016020900482015b828111156133c9578254825591600101919060010190613488565b5080546134af90613947565b6000825580601f106134c157506134df565b601f0160209004906000526020600020908101906134df91906134e2565b50565b5b808211156133d557600081556001016134e3565b80356001600160a01b038116811461350e57600080fd5b919050565b600082601f830112613523578081fd5b813567ffffffffffffffff8082111561353e5761353e6139b3565b604051601f8301601f191681016020018281118282101715613562576135626139b3565b604052828152848301602001861015613579578384fd5b82602086016020830137918201602001929092529392505050565b600080604083850312156135a6578182fd5b6135af836134f7565b946020939093013593505050565b600080604083850312156135cf578182fd5b823567ffffffffffffffff808211156135e6578384fd5b6135f286838701613513565b93506020850135915080821115613607578283fd5b5061361485828601613513565b9150509250929050565b60008060008060808587031215613633578182fd5b843567ffffffffffffffff8082111561364a578384fd5b61365688838901613513565b9550602087013591508082111561366b578384fd5b61367788838901613513565b9450604087013591508082111561368c578384fd5b5061369987828801613513565b9250506136a8606086016134f7565b905092959194509250565b6000602082840312156136c4578081fd5b5035919050565b600080604083850312156136dd578182fd5b82359150602083013567ffffffffffffffff8111156136fa578182fd5b61361485828601613513565b6001600160a01b03169052565b6000815180845261372b81602086016020860161391b565b601f01601f19169290920160200192915050565b6000825161375181846020870161391b565b9190910192915050565b60208082528251828201819052600091906040908185019080840286018301878501865b8381101561384b57603f19898403018552815160e081518186526137a582870182613713565b915050888201518582038a8701526137bd8282613713565b838a01516001600160a01b0316878b0152606080850151888303828a015291935091506137ea8382613713565b9250505060808083015161380082880182613706565b505060a080830151868303828801526138198382613713565b9250505060c080830151925085820381870152506138378183613713565b96890196945050509086019060010161377f565b509098975050505050505050565b901515815260200190565b600060e0825261387760e083018a613713565b8281036020840152613889818a613713565b6001600160a01b03898116604086015284820360608601529091506138ae8289613713565b908716608085015283810360a085015290506138ca8186613713565b905082810360c08401526138de8185613713565b9a9950505050505050505050565b600082198211156138ff576138ff61399d565b500190565b6000828210156139165761391661399d565b500390565b60005b8381101561393657818101518382015260200161391e565b838111156103f75750506000910152565b60028104600182168061395b57607f821691505b6020821081141561397c57634e487b7160e01b600052602260045260246000fd5b50919050565b60006000198214156139965761399661399d565b5060010190565b634e487b7160e01b600052601160045260246000fd5b634e487b7160e01b600052604160045260246000fdfea26469706673582212206eaf633c9f90d163aed24d7713e43d2ff0de08395b57c8bc0712d913bc83084f64736f6c63430008000033",
  "immutableReferences": {},
  "source": "// SPDX-License-Identifier: MIT\r\npragma solidity ^0.8.0;\r\n\r\ncontract Appointment {\r\n    /* ESTRUCTURAS DE DATOS */\r\n\r\n    struct appointment {\r\n        string date;\r\n        string time;\r\n        address patient;\r\n        string patient_name;\r\n        address doctor;\r\n        string doctor_name;\r\n        string status;\r\n    }\r\n\r\n    mapping(address => appointment[]) public PATIENTS;\r\n    mapping(address => appointment[]) public DOCTORS;\r\n\r\n    /* FUNCIONES DE UTILIDAD */\r\n\r\n    function compare(\r\n        string memory str1,\r\n        string memory str2\r\n    ) public pure returns (bool) {\r\n        return\r\n            keccak256(abi.encodePacked(str1)) ==\r\n            keccak256(abi.encodePacked(str2));\r\n    }\r\n\r\n    function get_count(\r\n        uint _role,\r\n        string memory _filter,\r\n        address _addr\r\n    ) private view returns (uint) {\r\n        uint count = 0;\r\n        if (_role == 0) {\r\n            // paciente\r\n            for (uint i = 0; i < PATIENTS[_addr].length; i++) {\r\n                if (compare(PATIENTS[_addr][i].status, _filter)) {\r\n                    count++;\r\n                }\r\n            }\r\n        } else {\r\n            // doctor\r\n            for (uint i = 0; i < DOCTORS[_addr].length; i++) {\r\n                if (compare(DOCTORS[_addr][i].status, _filter)) {\r\n                    count++;\r\n                }\r\n            }\r\n        }\r\n        return count;\r\n    }\r\n\r\n    function find_doctor_actual_index(\r\n        uint _index,\r\n        string memory _filter\r\n    ) private view returns (uint) {\r\n        uint count = 0;\r\n        uint pos = 0;\r\n        for (uint i = 0; i < DOCTORS[msg.sender].length; i++) {\r\n            if (compare(DOCTORS[msg.sender][i].status, _filter)) {\r\n                count++;\r\n                if ((count - 1) == _index) {\r\n                    pos = i;\r\n                    break;\r\n                }\r\n            }\r\n        }\r\n        return pos;\r\n    }\r\n\r\n    function find_patient_actual_index(\r\n        uint _index,\r\n        string memory _filter\r\n    ) private view returns (uint) {\r\n        uint count = 0;\r\n        uint pos = 0;\r\n        for (uint i = 0; i < PATIENTS[msg.sender].length; i++) {\r\n            if (compare(PATIENTS[msg.sender][i].status, _filter)) {\r\n                count++;\r\n                if ((count - 1) == _index) {\r\n                    pos = i;\r\n                    break;\r\n                }\r\n            }\r\n        }\r\n        return pos;\r\n    }\r\n\r\n    // eliminar cita en la lista de mdicos de forma iterativa\r\n    function iterative_delete(uint _index, address _doctor) private {\r\n        for (uint i = _index; i < DOCTORS[_doctor].length - 1; i++) {\r\n            DOCTORS[_doctor][i] = DOCTORS[_doctor][i + 1];\r\n        }\r\n        DOCTORS[_doctor].pop();\r\n    }\r\n\r\n    // eliminar cita en la lista de mdicos cuando el paciente borra su solicitud o cancela su cita\r\n    function delete_appointment(\r\n        address _doctor,\r\n        address _patient,\r\n        string memory _date\r\n    ) private {\r\n        uint target = DOCTORS[_doctor].length + 4;\r\n        for (uint i = 0; i < DOCTORS[_doctor].length; i++) {\r\n            if (\r\n                DOCTORS[_doctor][i].patient == _patient &&\r\n                compare(DOCTORS[_doctor][i].date, _date) == true\r\n            ) {\r\n                target = i;\r\n                break;\r\n            }\r\n        }\r\n        if (target < DOCTORS[_doctor].length) {\r\n            iterative_delete(target, _doctor);\r\n        }\r\n    }\r\n\r\n    // cambiar el estado y la hora en la lista de pacientes cuando el mdico confirma o rechaza/cancela una cita\r\n    function change_patient_status(\r\n        address _patient,\r\n        address _doctor,\r\n        string memory _prev,\r\n        string memory _next,\r\n        string memory _date,\r\n        string memory _time\r\n    ) private {\r\n        for (uint i = 0; i < PATIENTS[_patient].length; i++) {\r\n            if (\r\n                PATIENTS[_patient][i].doctor == _doctor &&\r\n                compare(PATIENTS[_patient][i].date, _date) == true &&\r\n                compare(PATIENTS[_patient][i].status, _prev) == true\r\n            ) {\r\n                if (compare(_time, \"\") == false) {\r\n                    PATIENTS[_patient][i].time = _time;\r\n                }\r\n                PATIENTS[_patient][i].status = _next;\r\n            }\r\n        }\r\n    }\r\n\r\n    // mdico confirma una cita especificando una hora\r\n    function confirm_appointment(uint _index, string memory _time) public {\r\n        // _index est en peticiones pendientes. Buscar el ndice actual\r\n        uint pos = find_doctor_actual_index(_index, \"Pendiente\");\r\n\r\n        // cambiar el estado y la hora en la lista de mdicos\r\n        DOCTORS[msg.sender][pos].time = _time;\r\n        DOCTORS[msg.sender][pos].status = \"Confirmado\";\r\n\r\n        address _patient = DOCTORS[msg.sender][pos].patient;\r\n        string memory _date = DOCTORS[msg.sender][pos].date;\r\n\r\n        // cambiar el estado y la hora en la lista de pacientes\r\n        change_patient_status(\r\n            _patient,\r\n            msg.sender,\r\n            \"Pendiente\",\r\n            \"Confirmado\",\r\n            _date,\r\n            _time\r\n        );\r\n    }\r\n\r\n    // mdico para ver las solicitudes de cita pendientes\r\n    function get_pending_requests() public view returns (appointment[] memory) {\r\n        appointment[] memory requests = new appointment[](\r\n            get_count(1, \"Pendiente\", msg.sender)\r\n        );\r\n        uint k = 0;\r\n        for (uint i = 0; i < DOCTORS[msg.sender].length; i++) {\r\n            if (compare(DOCTORS[msg.sender][i].status, \"Pendiente\")) {\r\n                requests[k] = DOCTORS[msg.sender][i];\r\n                k++;\r\n            }\r\n        }\r\n        return requests;\r\n    }\r\n\r\n    // mdico para ver las citas confirmadas\r\n    function get_confirmed_appointments()\r\n        public\r\n        view\r\n        returns (appointment[] memory)\r\n    {\r\n        appointment[] memory confirmed = new appointment[](\r\n            get_count(1, \"Confirmado\", msg.sender)\r\n        );\r\n        uint k = 0;\r\n        for (uint i = 0; i < DOCTORS[msg.sender].length; i++) {\r\n            if (compare(DOCTORS[msg.sender][i].status, \"Confirmado\")) {\r\n                confirmed[k] = DOCTORS[msg.sender][i];\r\n                k++;\r\n            }\r\n        }\r\n        return confirmed;\r\n    }\r\n\r\n    // mdico para rechazar una solicitud de cita pendiente\r\n    function reject_pending_request(uint _index) public {\r\n        // _index est en peticiones pendientes. Buscar el ndice actual\r\n        uint pos = find_doctor_actual_index(_index, \"Pendiente\");\r\n\r\n        address _patient = DOCTORS[msg.sender][pos].patient;\r\n        string memory _date = DOCTORS[msg.sender][pos].date;\r\n\r\n        // cambiar el estado en la lista de pacientes\r\n        change_patient_status(\r\n            _patient,\r\n            msg.sender,\r\n            \"Pendiente\",\r\n            \"Rechazado\",\r\n            _date,\r\n            \"\"\r\n        );\r\n\r\n        // quitar cita de la lista de mdicos\r\n        iterative_delete(pos, msg.sender);\r\n    }\r\n\r\n    // mdico para anular una cita confirmada\r\n    function cancel_confirmed_appointment(uint _index) public {\r\n        // _index est en peticiones confirmadas. Se buscae el ndice real\r\n        uint pos = find_doctor_actual_index(_index, \"Confirmado\");\r\n\r\n        address _patient = DOCTORS[msg.sender][pos].patient;\r\n        string memory _date = DOCTORS[msg.sender][pos].date;\r\n\r\n        // cambiar el estado en la lista de pacientes\r\n        change_patient_status(\r\n            _patient,\r\n            msg.sender,\r\n            \"Confirmado\",\r\n            \"Cancelado\",\r\n            _date,\r\n            \"\"\r\n        );\r\n\r\n        // elimina la cita de la lista de mdicos\r\n        iterative_delete(pos, msg.sender);\r\n    }\r\n\r\n    // mdico marca una cita confirmada como completada\r\n    function mark_as_complete(uint _index) public {\r\n        // _index est en peticiones confirmadas. Se busca ndice real\r\n        uint pos = find_doctor_actual_index(_index, \"Confirmado\");\r\n\r\n        // cambiar el estado y la hora en la lista de mdicos\r\n        DOCTORS[msg.sender][pos].status = \"Completado\";\r\n\r\n        address _patient = DOCTORS[msg.sender][pos].patient;\r\n        string memory _date = DOCTORS[msg.sender][pos].date;\r\n\r\n        // cambiar el estado en la lista de pacientes\r\n        change_patient_status(\r\n            _patient,\r\n            msg.sender,\r\n            \"Confirmado\",\r\n            \"Completado\",\r\n            _date,\r\n            \"\"\r\n        );\r\n    }\r\n\r\n    /* FUNCIONES DEL PACIENTE */\r\n\r\n    // el paciente puede solicitar una cita indicando la fecha y la direccin del mdico\r\n    function request_appointment(\r\n        string memory _patient,\r\n        string memory _doctor,\r\n        string memory _date,\r\n        address docAddr\r\n    ) public {\r\n        // insertar cita en el mapa del mdico\r\n        DOCTORS[docAddr].push(\r\n            appointment(\r\n                _date,\r\n                \"\",\r\n                msg.sender,\r\n                _patient,\r\n                docAddr,\r\n                _doctor,\r\n                \"Pendiente\"\r\n            )\r\n        );\r\n\r\n        // insertar cita en el mapa del paciente\r\n        PATIENTS[msg.sender].push(\r\n            appointment(\r\n                _date,\r\n                \"\",\r\n                msg.sender,\r\n                _patient,\r\n                docAddr,\r\n                _doctor,\r\n                \"Pendiente\"\r\n            )\r\n        );\r\n    }\r\n\r\n    // paciente observa las solicitudes de cita\r\n    function patient_get_all_appointments()\r\n        public\r\n        view\r\n        returns (appointment[] memory)\r\n    {\r\n        return PATIENTS[msg.sender];\r\n    }\r\n\r\n    // paciente observa las solicitudes pendientes\r\n    function patient_get_pending_requests()\r\n        public\r\n        view\r\n        returns (appointment[] memory)\r\n    {\r\n        appointment[] memory requests = new appointment[](\r\n            get_count(0, \"Pendiente\", msg.sender)\r\n        );\r\n        uint k = 0;\r\n        for (uint i = 0; i < PATIENTS[msg.sender].length; i++) {\r\n            if (compare(PATIENTS[msg.sender][i].status, \"Pendiente\")) {\r\n                requests[k] = PATIENTS[msg.sender][i];\r\n                k++;\r\n            }\r\n        }\r\n        return requests;\r\n    }\r\n\r\n    // paciente observa citas confirmadas\r\n    function patient_get_confirmed_appointments()\r\n        public\r\n        view\r\n        returns (appointment[] memory)\r\n    {\r\n        appointment[] memory confirmed = new appointment[](\r\n            get_count(0, \"Confirmado\", msg.sender)\r\n        );\r\n        uint k = 0;\r\n        for (uint i = 0; i < PATIENTS[msg.sender].length; i++) {\r\n            if (compare(PATIENTS[msg.sender][i].status, \"Confirmado\")) {\r\n                confirmed[k] = PATIENTS[msg.sender][i];\r\n                k++;\r\n            }\r\n        }\r\n        return confirmed;\r\n    }\r\n\r\n    // paciente elimina una solicitud de cita pendiente\r\n    function patient_delete_pending_request(uint _index) public {\r\n        uint pos = find_patient_actual_index(_index, \"Pendiente\");\r\n\r\n        // cambiar el estado en la lista de pacientes\r\n        PATIENTS[msg.sender][pos].status = \"Eliminado\";\r\n\r\n        address _doctor = PATIENTS[msg.sender][pos].doctor;\r\n        string memory _date = PATIENTS[msg.sender][pos].date;\r\n\r\n        // eliminar cita de la lista de mdicos\r\n        delete_appointment(_doctor, msg.sender, _date);\r\n    }\r\n\r\n    // paciente para cancelar una cita confirmada\r\n    function patient_cancel_confirmed_appointment(uint _index) public {\r\n        uint pos = find_patient_actual_index(_index, \"Confirmado\");\r\n\r\n        // cambiar el estado en la lista de pacientes\r\n        PATIENTS[msg.sender][pos].status = \"Cancelado\";\r\n\r\n        address _doctor = PATIENTS[msg.sender][pos].doctor;\r\n        string memory _date = PATIENTS[msg.sender][pos].date;\r\n\r\n        // quitar cita de la lista de mdicos\r\n        delete_appointment(_doctor, msg.sender, _date);\r\n    }\r\n}",
  "sourcePath": "C:\\Users\\Usuario\\Desktop\\TESIS_UTPL\\contracts\\Appointment.sol",
  "compiler": {
    "name": "solc",
    "version": "0.8.0+commit.c7dfd78e.Emscripten.clang"
  },
  "schemaVersion": "3.4.16",
  "updatedAt": "2024-02-05T22:37:53.307Z",
  "networkType": "ethereum",
  "devdoc": {
    "kind": "dev",
    "methods": {},
    "version": 1
  },
  "userdoc": {
    "kind": "user",
    "methods": {},
    "version": 1
  }
}