{
  "contractName": "Health",
  "abi": [
    {
      "inputs": [
        {
          "internalType": "address",
          "name": "",
          "type": "address"
        }
      ],
      "name": "DOCTORS",
      "outputs": [
        {
          "internalType": "address",
          "name": "addr",
          "type": "address"
        },
        {
          "internalType": "string",
          "name": "name",
          "type": "string"
        },
        {
          "internalType": "string",
          "name": "hospital",
          "type": "string"
        },
        {
          "internalType": "string",
          "name": "specialization",
          "type": "string"
        },
        {
          "internalType": "uint256",
          "name": "age",
          "type": "uint256"
        }
      ],
      "stateMutability": "view",
      "type": "function",
      "constant": true
    },
    {
      "inputs": [
        {
          "internalType": "address",
          "name": "",
          "type": "address"
        }
      ],
      "name": "PATIENTS",
      "outputs": [
        {
          "internalType": "string",
          "name": "id_patient",
          "type": "string"
        },
        {
          "internalType": "string",
          "name": "name",
          "type": "string"
        },
        {
          "internalType": "string",
          "name": "email",
          "type": "string"
        },
        {
          "internalType": "uint256",
          "name": "age",
          "type": "uint256"
        },
        {
          "internalType": "uint256",
          "name": "recordSize",
          "type": "uint256"
        }
      ],
      "stateMutability": "view",
      "type": "function",
      "constant": true
    },
    {
      "inputs": [],
      "name": "doctorCount",
      "outputs": [
        {
          "internalType": "uint256",
          "name": "",
          "type": "uint256"
        }
      ],
      "stateMutability": "view",
      "type": "function",
      "constant": true
    },
    {
      "inputs": [],
      "name": "patientCount",
      "outputs": [
        {
          "internalType": "uint256",
          "name": "",
          "type": "uint256"
        }
      ],
      "stateMutability": "view",
      "type": "function",
      "constant": true
    },
    {
      "inputs": [
        {
          "internalType": "string",
          "name": "str1",
          "type": "string"
        },
        {
          "internalType": "string",
          "name": "str2",
          "type": "string"
        }
      ],
      "name": "compare",
      "outputs": [
        {
          "internalType": "bool",
          "name": "",
          "type": "bool"
        }
      ],
      "stateMutability": "pure",
      "type": "function",
      "constant": true
    },
    {
      "inputs": [
        {
          "internalType": "address",
          "name": "_addr",
          "type": "address"
        },
        {
          "internalType": "string",
          "name": "_name",
          "type": "string"
        },
        {
          "internalType": "string",
          "name": "_hospital",
          "type": "string"
        },
        {
          "internalType": "string",
          "name": "_special",
          "type": "string"
        },
        {
          "internalType": "uint256",
          "name": "_age",
          "type": "uint256"
        },
        {
          "internalType": "string",
          "name": "_password",
          "type": "string"
        }
      ],
      "name": "add_doctor",
      "outputs": [],
      "stateMutability": "nonpayable",
      "type": "function"
    },
    {
      "inputs": [
        {
          "internalType": "string",
          "name": "_id_patient",
          "type": "string"
        },
        {
          "internalType": "string",
          "name": "_name",
          "type": "string"
        },
        {
          "internalType": "string",
          "name": "_email",
          "type": "string"
        },
        {
          "internalType": "uint256",
          "name": "_age",
          "type": "uint256"
        },
        {
          "internalType": "string",
          "name": "_password",
          "type": "string"
        }
      ],
      "name": "add_patient",
      "outputs": [],
      "stateMutability": "nonpayable",
      "type": "function"
    },
    {
      "inputs": [],
      "name": "get_addressKey",
      "outputs": [
        {
          "internalType": "address",
          "name": "",
          "type": "address"
        },
        {
          "internalType": "string",
          "name": "",
          "type": "string"
        }
      ],
      "stateMutability": "view",
      "type": "function",
      "constant": true
    },
    {
      "inputs": [],
      "name": "getPassword",
      "outputs": [
        {
          "internalType": "string",
          "name": "",
          "type": "string"
        }
      ],
      "stateMutability": "view",
      "type": "function",
      "constant": true
    },
    {
      "inputs": [],
      "name": "getRole",
      "outputs": [
        {
          "internalType": "uint256",
          "name": "",
          "type": "uint256"
        }
      ],
      "stateMutability": "view",
      "type": "function",
      "constant": true
    },
    {
      "inputs": [],
      "name": "get_existing_id_patients",
      "outputs": [
        {
          "internalType": "string[]",
          "name": "",
          "type": "string[]"
        }
      ],
      "stateMutability": "view",
      "type": "function",
      "constant": true
    },
    {
      "inputs": [
        {
          "internalType": "string",
          "name": "_password",
          "type": "string"
        }
      ],
      "name": "login",
      "outputs": [
        {
          "internalType": "uint256",
          "name": "",
          "type": "uint256"
        }
      ],
      "stateMutability": "view",
      "type": "function",
      "constant": true
    },
    {
      "inputs": [
        {
          "internalType": "address",
          "name": "_addr",
          "type": "address"
        }
      ],
      "name": "get_patient",
      "outputs": [
        {
          "internalType": "string",
          "name": "",
          "type": "string"
        },
        {
          "internalType": "uint256",
          "name": "",
          "type": "uint256"
        },
        {
          "internalType": "string",
          "name": "email",
          "type": "string"
        }
      ],
      "stateMutability": "view",
      "type": "function",
      "constant": true
    },
    {
      "inputs": [
        {
          "internalType": "address",
          "name": "_addr",
          "type": "address"
        }
      ],
      "name": "get_doctor",
      "outputs": [
        {
          "internalType": "address",
          "name": "",
          "type": "address"
        },
        {
          "internalType": "string",
          "name": "",
          "type": "string"
        },
        {
          "internalType": "string",
          "name": "",
          "type": "string"
        },
        {
          "internalType": "string",
          "name": "",
          "type": "string"
        },
        {
          "internalType": "uint256",
          "name": "",
          "type": "uint256"
        }
      ],
      "stateMutability": "view",
      "type": "function",
      "constant": true
    },
    {
      "inputs": [
        {
          "internalType": "address",
          "name": "addr",
          "type": "address"
        }
      ],
      "name": "permit_access",
      "outputs": [],
      "stateMutability": "payable",
      "type": "function",
      "payable": true
    },
    {
      "inputs": [
        {
          "internalType": "address",
          "name": "daddr",
          "type": "address"
        }
      ],
      "name": "revoke_access",
      "outputs": [],
      "stateMutability": "payable",
      "type": "function",
      "payable": true
    },
    {
      "inputs": [],
      "name": "get_permitted_doctors",
      "outputs": [
        {
          "internalType": "address[]",
          "name": "",
          "type": "address[]"
        }
      ],
      "stateMutability": "view",
      "type": "function",
      "constant": true
    },
    {
      "inputs": [],
      "name": "get_accessible_patients",
      "outputs": [
        {
          "internalType": "address[]",
          "name": "",
          "type": "address[]"
        }
      ],
      "stateMutability": "view",
      "type": "function",
      "constant": true
    },
    {
      "inputs": [
        {
          "internalType": "address",
          "name": "patientAddr",
          "type": "address"
        },
        {
          "internalType": "string",
          "name": "_date",
          "type": "string"
        },
        {
          "internalType": "string",
          "name": "_diagnosis",
          "type": "string"
        },
        {
          "internalType": "string",
          "name": "_description",
          "type": "string"
        },
        {
          "internalType": "string",
          "name": "_prescription",
          "type": "string"
        },
        {
          "internalType": "string[]",
          "name": "_files",
          "type": "string[]"
        }
      ],
      "name": "add_patient_record",
      "outputs": [],
      "stateMutability": "nonpayable",
      "type": "function"
    },
    {
      "inputs": [
        {
          "internalType": "address",
          "name": "patientAddr",
          "type": "address"
        }
      ],
      "name": "get_patient_records",
      "outputs": [
        {
          "components": [
            {
              "internalType": "string",
              "name": "date",
              "type": "string"
            },
            {
              "internalType": "address",
              "name": "doctor",
              "type": "address"
            },
            {
              "internalType": "string",
              "name": "diagnosis",
              "type": "string"
            },
            {
              "internalType": "string",
              "name": "description",
              "type": "string"
            },
            {
              "internalType": "string",
              "name": "prescription",
              "type": "string"
            },
            {
              "internalType": "string[]",
              "name": "files",
              "type": "string[]"
            }
          ],
          "internalType": "struct Health.record[]",
          "name": "",
          "type": "tuple[]"
        }
      ],
      "stateMutability": "view",
      "type": "function",
      "constant": true
    }
  ],
  "bytecode": "0x610140604052604260c081815260809182919062002bed60e039815260200160405180608001604052806042815260200162002c2f6042913990526200004a906004906002620000b5565b506040805180820190915273106e09a804824d3d62e506a143ac3faeb6e20057815273edfd4001288da0e493927e4033be7b24654756226020820152620000969060069060026200010c565b5060006008556000600955348015620000ae57600080fd5b506200029c565b8260028101928215620000fa579160200282015b82811115620000fa5782518051620000e991849160209091019062000165565b5091602001919060010190620000c9565b5062000108929150620001e2565b5090565b826002810192821562000157579160200282015b828111156200015757825182546001600160a01b0319166001600160a01b0390911617825560209092019160019091019062000120565b506200010892915062000203565b82805462000173906200025f565b90600052602060002090601f01602090048101928262000197576000855562000157565b82601f10620001b257805160ff191683800117855562000157565b8280016001018555821562000157579182015b8281111562000157578251825591602001919060010190620001c5565b8082111562000108576000620001f982826200021a565b50600101620001e2565b5b8082111562000108576000815560010162000204565b50805462000228906200025f565b6000825580601f106200023c57506200025c565b601f0160209004906000526020600020908101906200025c919062000203565b50565b6002810460018216806200027457607f821691505b602082108114156200029657634e487b7160e01b600052602260045260246000fd5b50919050565b61294180620002ac6000396000f3fe60806040526004361061011f5760003560e01c80638b12f18f116100a0578063bcffb7ca11610064578063bcffb7ca1461032f578063cc8e239414610342578063e7b5fc3b14610364578063edea511114610384578063fde08174146103b55761011f565b80638b12f18f146102935780639752c6df146102c05780639af7869f146102e35780639de989b214610305578063a0303c411461031a5761011f565b80634042d2d4116100e75780634042d2d4146101ed57806356c98c481461021c57806375b4bdec1461023c57806375df42c41461025c57806378522bc41461027e5761011f565b80631387974e1461012457806326a26ed21461015e57806327b1dcee146101805780633a7d280c146101935780633a96fdd7146101c0575b600080fd5b34801561013057600080fd5b5061014461013f366004612057565b6103ca565b6040516101559594939291906123c1565b60405180910390f35b34801561016a57600080fd5b5061017e610179366004612078565b61059b565b005b61017e61018e366004612057565b6106bd565b34801561019f57600080fd5b506101b36101ae366004612207565b610712565b6040516101559190612813565b3480156101cc57600080fd5b506101e06101db366004612242565b610913565b60405161015591906125f4565b3480156101f957600080fd5b5061020d610208366004612057565b61096c565b60405161015593929190612660565b34801561022857600080fd5b50610144610237366004612057565b610ac2565b34801561024857600080fd5b5061017e610257366004612153565b610cb7565b34801561026857600080fd5b50610271610e27565b604051610155919061246b565b34801561028a57600080fd5b506101b3610f00565b34801561029f57600080fd5b506102b36102ae366004612057565b610f06565b60405161015591906124cb565b3480156102cc57600080fd5b506102d561135b565b60405161015592919061239d565b3480156102ef57600080fd5b506102f8611449565b604051610155919061241e565b34801561031157600080fd5b506102f86114b9565b34801561032657600080fd5b506101b3611527565b61017e61033d366004612057565b61152d565b34801561034e57600080fd5b50610357611594565b60405161015591906125ff565b34801561037057600080fd5b5061017e61037f3660046122a3565b611631565b34801561039057600080fd5b506103a461039f366004612057565b611a2d565b604051610155959493929190612612565b3480156103c157600080fd5b506101b3611bf3565b600260205260009081526040902080546001820180546001600160a01b0390921692916103f690612889565b80601f016020809104026020016040519081016040528092919081815260200182805461042290612889565b801561046f5780601f106104445761010080835404028352916020019161046f565b820191906000526020600020905b81548152906001019060200180831161045257829003601f168201915b50505050509080600201805461048490612889565b80601f01602080910402602001604051908101604052809291908181526020018280546104b090612889565b80156104fd5780601f106104d2576101008083540402835291602001916104fd565b820191906000526020600020905b8154815290600101906020018083116104e057829003601f168201915b50505050509080600301805461051290612889565b80601f016020809104026020016040519081016040528092919081815260200182805461053e90612889565b801561058b5780601f106105605761010080835404028352916020019161058b565b820191906000526020600020905b81548152906001019060200180831161056e57829003601f168201915b5050505050908060040154905085565b6001600160a01b0386166000908152600160209081526040808320815160c0810183528981523381850152808301899052606081018890526080810187905260a08101869052600682015485526005820184529190932081518051929391926106079284920190611dcd565b506020828101516001830180546001600160a01b0319166001600160a01b03909216919091179055604083015180516106469260028501920190611dcd565b5060608201518051610662916003840191602090910190611dcd565b506080820151805161067e916004840191602090910190611dcd565b5060a0820151805161069a916005840191602090910190611e51565b5050506006810180549060006106af836128c4565b919050555050505050505050565b6001600160a01b0381166000908152600260205260409020339082906005016106e68184611c09565b506001600160a01b038216600090815260016020526040902060040161070c8183611c09565b50505050565b604080516020808201835260008083523380825291819052928320600101805491926107c79290919061074490612889565b80601f016020809104026020016040519081016040528092919081815260200182805461077090612889565b80156107bd5780601f10610792576101008083540402835291602001916107bd565b820191906000526020600020905b8154815290600101906020018083116107a057829003601f168201915b5050505050610913565b6107ec5760405162461bcd60e51b81526004016107e390612695565b60405180910390fd5b6001600160a01b038181166000908152602081905260409020541633146108255760405162461bcd60e51b81526004016107e3906127dc565b6001600160a01b038116600090815260208190526040902060010180546108d4919061085090612889565b80601f016020809104026020016040519081016040528092919081815260200182805461087c90612889565b80156108c95780601f1061089e576101008083540402835291602001916108c9565b820191906000526020600020905b8154815290600101906020018083116108ac57829003601f168201915b505050505084610913565b6108f05760405162461bcd60e51b81526004016107e3906126dd565b6001600160a01b031660009081526020819052604090206002015490505b919050565b6000816040516020016109269190612381565b604051602081830303815290604052805190602001208360405160200161094d9190612381565b6040516020818303038152906040528051906020012014905092915050565b6001600160a01b0381166000908152600160208190526040822060038101549181018054606094938593909160029091019083906109a990612889565b80601f01602080910402602001604051908101604052809291908181526020018280546109d590612889565b8015610a225780601f106109f757610100808354040283529160200191610a22565b820191906000526020600020905b815481529060010190602001808311610a0557829003601f168201915b50505050509250808054610a3590612889565b80601f0160208091040260200160405190810160405280929190818152602001828054610a6190612889565b8015610aae5780601f10610a8357610100808354040283529160200191610aae565b820191906000526020600020905b815481529060010190602001808311610a9157829003601f168201915b505050505090509250925092509193909250565b6001600160a01b0380821660009081526002602081905260408220805460048201546001830180549596606096879687968a969093169490830192600301918490610b0c90612889565b80601f0160208091040260200160405190810160405280929190818152602001828054610b3890612889565b8015610b855780601f10610b5a57610100808354040283529160200191610b85565b820191906000526020600020905b815481529060010190602001808311610b6857829003601f168201915b50505050509350828054610b9890612889565b80601f0160208091040260200160405190810160405280929190818152602001828054610bc490612889565b8015610c115780601f10610be657610100808354040283529160200191610c11565b820191906000526020600020905b815481529060010190602001808311610bf457829003601f168201915b50505050509250818054610c2490612889565b80601f0160208091040260200160405190810160405280929190818152602001828054610c5090612889565b8015610c9d5780601f10610c7257610100808354040283529160200191610c9d565b820191906000526020600020905b815481529060010190602001808311610c8057829003601f168201915b505050505091509450945094509450945091939590929450565b6001600160a01b038087166000818152602081905260409020549091161415610cf25760405162461bcd60e51b81526004016107e390612714565b6001600160a01b03861660008181526020818152604090912080546001600160a01b03191690921782558251610d2e9260010191840190611dcd565b506001600160a01b038616600090815260208190526040812060016002909101556009805491610d5d836128c4565b90915550506001600160a01b038616600081815260026020818152604090922080546001600160a01b03191690931783558651610da09390910191870190611dcd565b506001600160a01b03861660009081526002602090815260409091208451610dd092600390920191860190611dcd565b506001600160a01b03861660009081526002602090815260409091208651610e0092600190920191880190611dcd565b50506001600160a01b03909416600090815260026020526040902060040193909355505050565b60606003805480602002602001604051908101604052809291908181526020016000905b82821015610ef7578382906000526020600020018054610e6a90612889565b80601f0160208091040260200160405190810160405280929190818152602001828054610e9690612889565b8015610ee35780601f10610eb857610100808354040283529160200191610ee3565b820191906000526020600020905b815481529060010190602001808311610ec657829003601f168201915b505050505081526020019060010190610e4b565b50505050905090565b60095481565b6001600160a01b0381166000908152600160205260408120600601546060919067ffffffffffffffff811115610f4c57634e487b7160e01b600052604160045260246000fd5b604051908082528060200260200182016040528015610f8557816020015b610f72611eaa565b815260200190600190039081610f6a5790505b50905060005b6001600160a01b038416600090815260016020526040902060060154811015611354576001600160a01b038416600090815260016020908152604080832084845260050190915290819020815160c08101909252805482908290610fee90612889565b80601f016020809104026020016040519081016040528092919081815260200182805461101a90612889565b80156110675780601f1061103c57610100808354040283529160200191611067565b820191906000526020600020905b81548152906001019060200180831161104a57829003601f168201915b505050918352505060018201546001600160a01b0316602082015260028201805460409092019161109790612889565b80601f01602080910402602001604051908101604052809291908181526020018280546110c390612889565b80156111105780601f106110e557610100808354040283529160200191611110565b820191906000526020600020905b8154815290600101906020018083116110f357829003601f168201915b5050505050815260200160038201805461112990612889565b80601f016020809104026020016040519081016040528092919081815260200182805461115590612889565b80156111a25780601f10611177576101008083540402835291602001916111a2565b820191906000526020600020905b81548152906001019060200180831161118557829003601f168201915b505050505081526020016004820180546111bb90612889565b80601f01602080910402602001604051908101604052809291908181526020018280546111e790612889565b80156112345780601f1061120957610100808354040283529160200191611234565b820191906000526020600020905b81548152906001019060200180831161121757829003601f168201915b5050505050815260200160058201805480602002602001604051908101604052809291908181526020016000905b8282101561130e57838290600052602060002001805461128190612889565b80601f01602080910402602001604051908101604052809291908181526020018280546112ad90612889565b80156112fa5780601f106112cf576101008083540402835291602001916112fa565b820191906000526020600020905b8154815290600101906020018083116112dd57829003601f168201915b505050505081526020019060010190611262565b505050508152505082828151811061133657634e487b7160e01b600052603260045260246000fd5b6020026020010181905250808061134c906128c4565b915050610f8b565b5092915050565b600060606006600a546002811061138257634e487b7160e01b600052603260045260246000fd5b0154600a546001600160a01b0390911690600490600281106113b457634e487b7160e01b600052603260045260246000fd5b018080546113c190612889565b80601f01602080910402602001604051908101604052809291908181526020018280546113ed90612889565b801561143a5780601f1061140f5761010080835404028352916020019161143a565b820191906000526020600020905b81548152906001019060200180831161141d57829003601f168201915b50505050509050915091509091565b33600081815260016020908152604091829020600401805483518184028101840190945280845260609493928301828280156114ae57602002820191906000526020600020905b81546001600160a01b03168152600190910190602001808311611490575b505050505091505090565b33600081815260026020908152604091829020600501805483518184028101840190945280845260609493928301828280156114ae576020028201919060005260206000209081546001600160a01b0316815260019091019060200180831161149057505050505091505090565b60085481565b6001600160a01b03166000818152600260209081526040808320600501805460018082018355918552838520018054336001600160a01b03199182168117909255908552818452918420600401805491820181558452919092200180549091169091179055565b336000818152602081905260409020600101805460609291906115b690612889565b80601f01602080910402602001604051908101604052809291908181526020018280546115e290612889565b80156114ae5780601f10611604576101008083540402835291602001916114ae565b820191906000526020600020905b8154815290600101906020018083116116125750939695505050505050565b6000600a555b6002600a5410156116c8576116a4604051806020016040528060008152506000806006600a546002811061167b57634e487b7160e01b600052603260045260246000fd5b01546001600160a01b031681526020810191909152604001600020600101805461074490612889565b156116ae576116c8565b600a80549060006116be836128c4565b9190505550611637565b6002600a54106116ea5760405162461bcd60e51b81526004016107e39061279b565b6006600a546002811061170d57634e487b7160e01b600052603260045260246000fd5b0154600a546001600160a01b039091169060009081906006906002811061174457634e487b7160e01b600052603260045260246000fd5b01546001600160a01b0390811682526020820192909252604001600090812080546001600160a01b03191693909216929092179055600a548291908190600690600281106117a257634e487b7160e01b600052603260045260246000fd5b01546001600160a01b0316815260208082019290925260400160002082516117d4936001909201929190910190611dcd565b5060008060006006600a54600281106117fd57634e487b7160e01b600052603260045260246000fd5b01546001600160a01b031681526020810191909152604001600090812060020191909155600880549161182f836128c4565b9091555050600380546001810182556000919091528551611877917fc2575a0e9e593c00f959f8c92f12db2869c3395a3b0502d05e2516446f71f85b01906020880190611dcd565b5084600160006006600a54600281106118a057634e487b7160e01b600052603260045260246000fd5b01546001600160a01b0316815260208082019290925260400160002082516118ce9391929190910190611dcd565b5083600160006006600a54600281106118f757634e487b7160e01b600052603260045260246000fd5b01546001600160a01b031681526020808201929092526040016000208251611929936001909201929190910190611dcd565b5081600160006006600a546002811061195257634e487b7160e01b600052603260045260246000fd5b01546001600160a01b031681526020810191909152604001600090812060030191909155600a5484916001916006906002811061199f57634e487b7160e01b600052603260045260246000fd5b01546001600160a01b0316815260208082019290925260400160002082516119d1936002909201929190910190611dcd565b506000600160006006600a54600281106119fb57634e487b7160e01b600052603260045260246000fd5b01546001600160a01b03168152602081019190915260400160002060060155600a54611a2690611dc8565b5050505050565b600160205260009081526040902080548190611a4890612889565b80601f0160208091040260200160405190810160405280929190818152602001828054611a7490612889565b8015611ac15780601f10611a9657610100808354040283529160200191611ac1565b820191906000526020600020905b815481529060010190602001808311611aa457829003601f168201915b505050505090806001018054611ad690612889565b80601f0160208091040260200160405190810160405280929190818152602001828054611b0290612889565b8015611b4f5780601f10611b2457610100808354040283529160200191611b4f565b820191906000526020600020905b815481529060010190602001808311611b3257829003601f168201915b505050505090806002018054611b6490612889565b80601f0160208091040260200160405190810160405280929190818152602001828054611b9090612889565b8015611bdd5780601f10611bb257610100808354040283529160200191611bdd565b820191906000526020600020905b815481529060010190602001808311611bc057829003601f168201915b5050505050908060030154908060060154905085565b3360009081526020819052604090206002015490565b60008060005b8454811015611c7b57836001600160a01b0316858281548110611c4257634e487b7160e01b600052603260045260246000fd5b6000918252602090912001546001600160a01b03161415611c695760019250809150611c7b565b80611c73816128c4565b915050611c0f565b5081611c995760405162461bcd60e51b81526004016107e390612758565b835460011415611ce85783805480611cc157634e487b7160e01b600052603160045260246000fd5b600082815260209020810160001990810180546001600160a01b031916905501905561070c565b83548490611cf890600190612846565b81548110611d1657634e487b7160e01b600052603260045260246000fd5b9060005260206000200160009054906101000a90046001600160a01b0316848281548110611d5457634e487b7160e01b600052603260045260246000fd5b9060005260206000200160006101000a8154816001600160a01b0302191690836001600160a01b0316021790555083805480611da057634e487b7160e01b600052603160045260246000fd5b600082815260209020810160001990810180546001600160a01b031916905501905550505050565b600a55565b828054611dd990612889565b90600052602060002090601f016020900481019282611dfb5760008555611e41565b82601f10611e1457805160ff1916838001178555611e41565b82800160010185558215611e41579182015b82811115611e41578251825591602001919060010190611e26565b50611e4d929150611ee9565b5090565b828054828255906000526020600020908101928215611e9e579160200282015b82811115611e9e5782518051611e8e918491602090910190611dcd565b5091602001919060010190611e71565b50611e4d929150611efe565b6040518060c001604052806060815260200160006001600160a01b03168152602001606081526020016060815260200160608152602001606081525090565b5b80821115611e4d5760008155600101611eea565b80821115611e4d576000611f128282611f1b565b50600101611efe565b508054611f2790612889565b6000825580601f10611f395750611f57565b601f016020900490600052602060002090810190611f579190611ee9565b50565b80356001600160a01b038116811461090e57600080fd5b600082601f830112611f81578081fd5b8135602067ffffffffffffffff821115611f9d57611f9d6128f5565b611faa818284020161281c565b82815281810190858301855b85811015611fdf57611fcd898684358b0101611fec565b84529284019290840190600101611fb6565b5090979650505050505050565b600082601f830112611ffc578081fd5b813567ffffffffffffffff811115612016576120166128f5565b612029601f8201601f191660200161281c565b81815284602083860101111561203d578283fd5b816020850160208301379081016020019190915292915050565b600060208284031215612068578081fd5b61207182611f5a565b9392505050565b60008060008060008060c08789031215612090578182fd5b61209987611f5a565b9550602087013567ffffffffffffffff808211156120b5578384fd5b6120c18a838b01611fec565b965060408901359150808211156120d6578384fd5b6120e28a838b01611fec565b955060608901359150808211156120f7578384fd5b6121038a838b01611fec565b94506080890135915080821115612118578384fd5b6121248a838b01611fec565b935060a0890135915080821115612139578283fd5b5061214689828a01611f71565b9150509295509295509295565b60008060008060008060c0878903121561216b578182fd5b61217487611f5a565b9550602087013567ffffffffffffffff80821115612190578384fd5b61219c8a838b01611fec565b965060408901359150808211156121b1578384fd5b6121bd8a838b01611fec565b955060608901359150808211156121d2578384fd5b6121de8a838b01611fec565b94506080890135935060a08901359150808211156121fa578283fd5b5061214689828a01611fec565b600060208284031215612218578081fd5b813567ffffffffffffffff81111561222e578182fd5b61223a84828501611fec565b949350505050565b60008060408385031215612254578182fd5b823567ffffffffffffffff8082111561226b578384fd5b61227786838701611fec565b9350602085013591508082111561228c578283fd5b5061229985828601611fec565b9150509250929050565b600080600080600060a086880312156122ba578081fd5b853567ffffffffffffffff808211156122d1578283fd5b6122dd89838a01611fec565b965060208801359150808211156122f2578283fd5b6122fe89838a01611fec565b95506040880135915080821115612313578283fd5b61231f89838a01611fec565b945060608801359350608088013591508082111561233b578283fd5b5061234888828901611fec565b9150509295509295909350565b6000815180845261236d81602086016020860161285d565b601f01601f19169290920160200192915050565b6000825161239381846020870161285d565b9190910192915050565b6001600160a01b038316815260406020820181905260009061223a90830184612355565b6001600160a01b038616815260a0602082018190526000906123e590830187612355565b82810360408401526123f78187612355565b9050828103606084015261240b8186612355565b9150508260808301529695505050505050565b6020808252825182820181905260009190848201906040850190845b8181101561245f5783516001600160a01b03168352928401929184019160010161243a565b50909695505050505050565b6000602080830181845280855180835260408601915060408482028701019250838701855b828110156124be57603f198886030184526124ac858351612355565b94509285019290850190600101612490565b5092979650505050505050565b60208082528251828201819052600091906040908185019080840286018301878501865b838110156125e657603f19898403018552815160c0815181865261251582870182612355565b838b01516001600160a01b0316878c0152898401518782038b89015290925090506125408282612355565b9150506060808301518683038288015261255a8382612355565b92505050608080830151868303828801526125758382612355565b60a094850151888203958901959095528451808252948c01949093508b8401925090508a810283018b018c5b828110156125cf57601f198583030184526125bd828751612355565b958d0195938d019391506001016125a1565b50988b0198965050509288019250506001016124ef565b509098975050505050505050565b901515815260200190565b6000602082526120716020830184612355565b600060a0825261262560a0830188612355565b82810360208401526126378188612355565b9050828103604084015261264b8187612355565b60608401959095525050608001529392505050565b6000606082526126736060830186612355565b846020840152828103604084015261268b8185612355565b9695505050505050565b60208082526028908201527f4375656e7461206e6f20656e636f6e74726164612e2052656769737472657365604082015267207072696d65726f60c01b606082015260800190565b60208082526019908201527f4c6120636f6e74726173656e61206e6f20636f696e6369646500000000000000604082015260600190565b60208082526024908201527f4573746120646972656363696f6e207961206861207369646f207265676973746040820152637261646160e01b606082015260800190565b60208082526023908201527f446972656363696f6e206e6f20656e636f6e747261646120656e206c61206c6960408201526273746160e81b606082015260800190565b60208082526021908201527f4675657261206465206c617320646972656363696f6e657320706f7369626c656040820152607360f81b606082015260800190565b6020808252601e908201527f4e6f207075656465206163636564657220612065737461206375656e74610000604082015260600190565b90815260200190565b60405181810167ffffffffffffffff8111828210171561283e5761283e6128f5565b604052919050565b600082821015612858576128586128df565b500390565b60005b83811015612878578181015183820152602001612860565b8381111561070c5750506000910152565b60028104600182168061289d57607f821691505b602082108114156128be57634e487b7160e01b600052602260045260246000fd5b50919050565b60006000198214156128d8576128d86128df565b5060010190565b634e487b7160e01b600052601160045260246000fd5b634e487b7160e01b600052604160045260246000fdfea2646970667358221220954552b0172fad28507a34f2c4ce21310f2b62b057d6b46fe7f6977e29ba8e7964736f6c63430008000033307832643734363964323031363766623466666438343664373961636131313232363832356434306462376535353237646333313064633133386562623538623235307836373631653236653234353532643333346231633964323038396365646232373137636466306133663232393461623039336361383635393132363264386137",
  "immutableReferences": {},
  "source": "// SPDX-License-Identifier: MIT\r\npragma solidity ^0.8.0;\r\n\r\ncontract Health {\r\n    struct user {\r\n        address addr;\r\n        string password;\r\n        uint categ;\r\n    }\r\n\r\n   struct record {\r\n        string date;\r\n        address doctor;\r\n        string diagnosis;\r\n        string description;\r\n        string prescription;\r\n        string[] files;\r\n    }\r\n\r\n   struct patient {\r\n        string id_patient;\r\n        string name;\r\n        string email;\r\n        uint age;\r\n        address[] doctorAccessList;\r\n        mapping(uint => record) recordMap;\r\n        uint recordSize;\r\n    }\r\n\r\n    struct doctor {\r\n        address addr;\r\n        string name;\r\n        string hospital;\r\n        string specialization;\r\n        uint age;\r\n        address[] patientAccessList;\r\n    }\r\n\r\n    mapping(address => user) USERS;\r\n    mapping(address => patient) public PATIENTS;\r\n    mapping(address => doctor) public DOCTORS;\r\n\r\n    string[] id_patient;\r\n\r\n    string[2] private_keys = [\r\n        \"0x2d7469d20167fb4ffd846d79aca11226825d40db7e5527dc310dc138ebb58b25\",\r\n        \"0x6761e26e24552d334b1c9d2089cedb2717cdf0a3f2294ab093ca86591262d8a7\"\r\n    ];\r\n    address[2] addresses = [\r\n        0x106E09A804824D3D62e506a143aC3Faeb6e20057,\r\n        0xedFd4001288dA0e493927E4033BE7b2465475622\r\n    ];\r\n\r\n    // variable para llevar la cuenta de pacientes y mdicos\r\n    uint public patientCount = 0;\r\n    uint public doctorCount = 0;\r\n\r\n    /* FUNCIONES DE UTILIDAD */\r\n\r\n    function compare(\r\n        string memory str1,\r\n        string memory str2\r\n    ) public pure returns (bool) {\r\n        return\r\n            keccak256(abi.encodePacked(str1)) ==\r\n            keccak256(abi.encodePacked(str2));\r\n    }\r\n\r\n    /* MDULO DE AUTENTICACIN */\r\n\r\n    function add_doctor(\r\n        address _addr,\r\n        string memory _name,\r\n        string memory _hospital,\r\n        string memory _special,\r\n        uint _age,\r\n        string memory _password\r\n    ) public {\r\n        require(\r\n            USERS[_addr].addr != _addr,\r\n            \"Esta direccion ya ha sido registrada\"\r\n        );\r\n        USERS[_addr].addr = _addr;\r\n        USERS[_addr].password = _password;\r\n        USERS[_addr].categ = 1;\r\n\r\n        doctorCount++;\r\n        DOCTORS[_addr].addr = _addr;\r\n        DOCTORS[_addr].hospital = _hospital;\r\n        DOCTORS[_addr].specialization = _special;\r\n        DOCTORS[_addr].name = _name;\r\n        DOCTORS[_addr].age = _age;\r\n    }\r\n\r\n    function add_patient(\r\n        string memory _id_patient,\r\n        string memory _name,\r\n        string memory _email,\r\n        uint _age,\r\n        string memory _password\r\n    ) public {\r\n        // obtener la direccin y la clave privada del paciente\r\n        i = 0;\r\n        while (i < addresses.length) {\r\n            if (compare(\"\", USERS[addresses[i]].password)) {\r\n                break;\r\n            }\r\n            i++;\r\n        }\r\n\r\n        require(i < addresses.length, \"Fuera de las direcciones posibles\");\r\n        USERS[addresses[i]].addr = addresses[i];\r\n        USERS[addresses[i]].password = _password;\r\n        USERS[addresses[i]].categ = 0;\r\n\r\n        patientCount++;\r\n        id_patient.push(_id_patient);\r\n        PATIENTS[addresses[i]].id_patient = _id_patient;\r\n        PATIENTS[addresses[i]].name = _name;\r\n        PATIENTS[addresses[i]].age = _age;\r\n        PATIENTS[addresses[i]].email = _email;\r\n        PATIENTS[addresses[i]].recordSize = 0;\r\n\r\n        set_i(i);\r\n    }\r\n\r\n    uint i;\r\n\r\n    function set_i(uint x) private {\r\n        i = x;\r\n    }\r\n\r\n    // obtiene la direccin y la clave privada del paciente recin creado\r\n    function get_addressKey() public view returns (address, string memory) {\r\n        return (addresses[i], private_keys[i]);\r\n    }\r\n\r\n    function getPassword() public view returns (string memory) {\r\n        address _addr = msg.sender;\r\n        return USERS[_addr].password;\r\n    }\r\n\r\n    function getRole() public view returns (uint) {\r\n        address _addr = msg.sender;\r\n        return USERS[_addr].categ;\r\n    }\r\n\r\n    function get_existing_id_patients() public view returns (string[] memory) {\r\n        return id_patient;\r\n    }\r\n\r\n    function login(string memory _password) public view returns (uint) {\r\n        address _addr = msg.sender;\r\n        // comprobar si existe una cuenta con la direccin indicada\r\n        require(\r\n            compare(\"\", USERS[_addr].password),\r\n            \"Cuenta no encontrada. Registrese primero\"\r\n        );\r\n        // comprobar si msg.sender (persona que se est conectando actualmente con el contrato) \r\n        //es el propietario de la cuenta\r\n        require(\r\n            USERS[_addr].addr == msg.sender,\r\n            \"No puede acceder a esta cuenta\"\r\n        );\r\n        // comprobar si la contrasea almacenada y la escrita coinciden\r\n        require(\r\n            compare(USERS[_addr].password, _password),\r\n            \"La contrasena no coincide\"\r\n        );\r\n        // devolver la categora del usuario\r\n        return USERS[_addr].categ;\r\n    }\r\n\r\n    function get_patient(\r\n        address _addr\r\n    ) public view returns (string memory, uint, string memory email) {\r\n        return (\r\n            PATIENTS[_addr].name,\r\n            PATIENTS[_addr].age,\r\n            PATIENTS[_addr].email\r\n        );\r\n    }\r\n\r\n    function get_doctor(\r\n        address _addr\r\n    )\r\n        public\r\n        view\r\n        returns (address, string memory, string memory, string memory, uint)\r\n    {\r\n        return (\r\n            DOCTORS[_addr].addr,\r\n            DOCTORS[_addr].name,\r\n            DOCTORS[_addr].hospital,\r\n            DOCTORS[_addr].specialization,\r\n            DOCTORS[_addr].age\r\n        );\r\n    }\r\n\r\n    /* MDULO DE GESTIN DE ACCESO */\r\n\r\n    function permit_access(address addr) public payable {\r\n        DOCTORS[addr].patientAccessList.push(msg.sender);\r\n        PATIENTS[msg.sender].doctorAccessList.push(addr);\r\n    }\r\n\r\n    function revoke_access(address daddr) public payable {\r\n        address patientAddr = msg.sender;\r\n        address doctorAddr = daddr;\r\n\r\n        // eliminar la direccin del paciente de la lista de acceso del mdico\r\n        address[] storage arr = DOCTORS[doctorAddr].patientAccessList;\r\n        remove_element_from_array(arr, patientAddr);\r\n\r\n        //eliminar la direccin del mdico de la lista de acceso de los pacientes\r\n        arr = PATIENTS[patientAddr].doctorAccessList;\r\n        remove_element_from_array(arr, doctorAddr);\r\n\r\n    }\r\n\r\n    function remove_element_from_array(\r\n        address[] storage arr,\r\n        address addr\r\n    ) private {\r\n        // buscar el ndice de esta direccin en el arreglo\r\n        bool found = false;\r\n        uint target_index = 0;\r\n        for (uint j = 0; j < arr.length; j++) {\r\n            if (arr[j] == addr) {\r\n                found = true;\r\n                target_index = j;\r\n                break;\r\n            }\r\n        }\r\n        // si no se encuentra, la accin se revierte\r\n        if (!found) revert(\"Direccion no encontrada en la lista\");\r\n        else {\r\n            if (arr.length == 1) arr.pop();\r\n            else {\r\n                arr[target_index] = arr[arr.length - 1];\r\n                arr.pop();\r\n            }\r\n        }\r\n    }\r\n\r\n    function get_permitted_doctors() public view returns (address[] memory) {\r\n        address addr = msg.sender;\r\n        return PATIENTS[addr].doctorAccessList;\r\n    }\r\n\r\n    function get_accessible_patients() public view returns (address[] memory) {\r\n        address addr = msg.sender;\r\n        return DOCTORS[addr].patientAccessList;\r\n    }\r\n\r\n    /* MDULO DE INTERCAMBIO DE DATOS */\r\n\r\n    function add_patient_record(\r\n        address patientAddr,\r\n        string memory _date,\r\n        string memory _diagnosis,\r\n        string memory _description,\r\n        string memory _prescription,\r\n        string[] memory _files\r\n    ) public {\r\n        patient storage p = PATIENTS[patientAddr];\r\n\r\n        p.recordMap[p.recordSize] = record(\r\n            _date,\r\n            msg.sender,\r\n            _diagnosis,\r\n            _description,\r\n            _prescription,\r\n            _files\r\n        );\r\n        p.recordSize++;\r\n    }\r\n\r\n    function get_patient_records(\r\n        address patientAddr\r\n    ) public view returns (record[] memory) {\r\n        record[] memory records = new record[](\r\n            PATIENTS[patientAddr].recordSize\r\n        );\r\n        for (uint k = 0; k < PATIENTS[patientAddr].recordSize; k++) {\r\n            records[k] = PATIENTS[patientAddr].recordMap[k];\r\n        }\r\n        return records;\r\n    }\r\n    \r\n}",
  "sourcePath": "C:\\Users\\Usuario\\Desktop\\TESIS_UTPL\\contracts\\Health.sol",
  "compiler": {
    "name": "solc",
    "version": "0.8.0+commit.c7dfd78e.Emscripten.clang"
  },
  "schemaVersion": "3.4.16",
  "updatedAt": "2024-01-11T00:01:16.388Z",
  "networkType": "ethereum",
  "devdoc": {
    "kind": "dev",
    "methods": {},
    "version": 1
  },
  "userdoc": {
    "kind": "user",
    "methods": {},
    "version": 1
  }
}