{
  "contractName": "Health",
  "abi": [
    {
      "inputs": [
        {
          "internalType": "address",
          "name": "",
          "type": "address"
        }
      ],
      "name": "DOCTORS",
      "outputs": [
        {
          "internalType": "address",
          "name": "addr",
          "type": "address"
        },
        {
          "internalType": "string",
          "name": "name",
          "type": "string"
        },
        {
          "internalType": "string",
          "name": "hospital",
          "type": "string"
        },
        {
          "internalType": "string",
          "name": "specialization",
          "type": "string"
        },
        {
          "internalType": "uint256",
          "name": "age",
          "type": "uint256"
        }
      ],
      "stateMutability": "view",
      "type": "function",
      "constant": true
    },
    {
      "inputs": [
        {
          "internalType": "address",
          "name": "",
          "type": "address"
        }
      ],
      "name": "PATIENTS",
      "outputs": [
        {
          "internalType": "string",
          "name": "id_patient",
          "type": "string"
        },
        {
          "internalType": "string",
          "name": "name",
          "type": "string"
        },
        {
          "internalType": "string",
          "name": "email",
          "type": "string"
        },
        {
          "internalType": "uint256",
          "name": "age",
          "type": "uint256"
        },
        {
          "internalType": "uint256",
          "name": "recordSize",
          "type": "uint256"
        }
      ],
      "stateMutability": "view",
      "type": "function",
      "constant": true
    },
    {
      "inputs": [],
      "name": "doctorCount",
      "outputs": [
        {
          "internalType": "uint256",
          "name": "",
          "type": "uint256"
        }
      ],
      "stateMutability": "view",
      "type": "function",
      "constant": true
    },
    {
      "inputs": [],
      "name": "patientCount",
      "outputs": [
        {
          "internalType": "uint256",
          "name": "",
          "type": "uint256"
        }
      ],
      "stateMutability": "view",
      "type": "function",
      "constant": true
    },
    {
      "inputs": [
        {
          "internalType": "string",
          "name": "str1",
          "type": "string"
        },
        {
          "internalType": "string",
          "name": "str2",
          "type": "string"
        }
      ],
      "name": "compare",
      "outputs": [
        {
          "internalType": "bool",
          "name": "",
          "type": "bool"
        }
      ],
      "stateMutability": "pure",
      "type": "function",
      "constant": true
    },
    {
      "inputs": [
        {
          "internalType": "address",
          "name": "_addr",
          "type": "address"
        },
        {
          "internalType": "string",
          "name": "_name",
          "type": "string"
        },
        {
          "internalType": "string",
          "name": "_hospital",
          "type": "string"
        },
        {
          "internalType": "string",
          "name": "_special",
          "type": "string"
        },
        {
          "internalType": "uint256",
          "name": "_age",
          "type": "uint256"
        },
        {
          "internalType": "string",
          "name": "_password",
          "type": "string"
        }
      ],
      "name": "add_doctor",
      "outputs": [],
      "stateMutability": "nonpayable",
      "type": "function"
    },
    {
      "inputs": [
        {
          "internalType": "address",
          "name": "_addr",
          "type": "address"
        },
        {
          "internalType": "string",
          "name": "_password",
          "type": "string"
        }
      ],
      "name": "add_pharmacy",
      "outputs": [],
      "stateMutability": "nonpayable",
      "type": "function"
    },
    {
      "inputs": [
        {
          "internalType": "string",
          "name": "_id_patient",
          "type": "string"
        },
        {
          "internalType": "string",
          "name": "_name",
          "type": "string"
        },
        {
          "internalType": "string",
          "name": "_email",
          "type": "string"
        },
        {
          "internalType": "uint256",
          "name": "_age",
          "type": "uint256"
        },
        {
          "internalType": "string",
          "name": "_password",
          "type": "string"
        }
      ],
      "name": "add_patient",
      "outputs": [],
      "stateMutability": "nonpayable",
      "type": "function"
    },
    {
      "inputs": [],
      "name": "get_addressKey",
      "outputs": [
        {
          "internalType": "address",
          "name": "",
          "type": "address"
        },
        {
          "internalType": "string",
          "name": "",
          "type": "string"
        }
      ],
      "stateMutability": "view",
      "type": "function",
      "constant": true
    },
    {
      "inputs": [],
      "name": "getPassword",
      "outputs": [
        {
          "internalType": "string",
          "name": "",
          "type": "string"
        }
      ],
      "stateMutability": "view",
      "type": "function",
      "constant": true
    },
    {
      "inputs": [],
      "name": "getRole",
      "outputs": [
        {
          "internalType": "uint256",
          "name": "",
          "type": "uint256"
        }
      ],
      "stateMutability": "view",
      "type": "function",
      "constant": true
    },
    {
      "inputs": [],
      "name": "get_existing_id_patients",
      "outputs": [
        {
          "internalType": "string[]",
          "name": "",
          "type": "string[]"
        }
      ],
      "stateMutability": "view",
      "type": "function",
      "constant": true
    },
    {
      "inputs": [
        {
          "internalType": "string",
          "name": "_password",
          "type": "string"
        }
      ],
      "name": "login",
      "outputs": [
        {
          "internalType": "uint256",
          "name": "",
          "type": "uint256"
        }
      ],
      "stateMutability": "view",
      "type": "function",
      "constant": true
    },
    {
      "inputs": [
        {
          "internalType": "address",
          "name": "_addr",
          "type": "address"
        }
      ],
      "name": "get_patient",
      "outputs": [
        {
          "internalType": "string",
          "name": "",
          "type": "string"
        },
        {
          "internalType": "uint256",
          "name": "",
          "type": "uint256"
        },
        {
          "internalType": "string",
          "name": "email",
          "type": "string"
        }
      ],
      "stateMutability": "view",
      "type": "function",
      "constant": true
    },
    {
      "inputs": [
        {
          "internalType": "address",
          "name": "_addr",
          "type": "address"
        }
      ],
      "name": "get_doctor",
      "outputs": [
        {
          "internalType": "address",
          "name": "",
          "type": "address"
        },
        {
          "internalType": "string",
          "name": "",
          "type": "string"
        },
        {
          "internalType": "string",
          "name": "",
          "type": "string"
        },
        {
          "internalType": "string",
          "name": "",
          "type": "string"
        },
        {
          "internalType": "uint256",
          "name": "",
          "type": "uint256"
        }
      ],
      "stateMutability": "view",
      "type": "function",
      "constant": true
    },
    {
      "inputs": [
        {
          "internalType": "address",
          "name": "addr",
          "type": "address"
        }
      ],
      "name": "permit_access",
      "outputs": [],
      "stateMutability": "payable",
      "type": "function",
      "payable": true
    },
    {
      "inputs": [
        {
          "internalType": "address",
          "name": "daddr",
          "type": "address"
        }
      ],
      "name": "revoke_access",
      "outputs": [],
      "stateMutability": "payable",
      "type": "function",
      "payable": true
    },
    {
      "inputs": [],
      "name": "get_permitted_doctors",
      "outputs": [
        {
          "internalType": "address[]",
          "name": "",
          "type": "address[]"
        }
      ],
      "stateMutability": "view",
      "type": "function",
      "constant": true
    },
    {
      "inputs": [],
      "name": "get_accessible_patients",
      "outputs": [
        {
          "internalType": "address[]",
          "name": "",
          "type": "address[]"
        }
      ],
      "stateMutability": "view",
      "type": "function",
      "constant": true
    }
  ],
  "bytecode": "0x610140604052604260c08181526080918291906200236360e0398152602001604051806080016040528060428152602001620023a56042913990526200004a906004906002620000b5565b506040805180820190915273ff4980dc904f5b4f092922932e941598ecec64b4815273c19ab23c7e176c4fc9cad15c04b1b65fdecff17c6020820152620000969060069060026200010c565b5060006008556000600955348015620000ae57600080fd5b506200029c565b8260028101928215620000fa579160200282015b82811115620000fa5782518051620000e991849160209091019062000165565b5091602001919060010190620000c9565b5062000108929150620001e2565b5090565b826002810192821562000157579160200282015b828111156200015757825182546001600160a01b0319166001600160a01b0390911617825560209092019160019091019062000120565b506200010892915062000203565b82805462000173906200025f565b90600052602060002090601f01602090048101928262000197576000855562000157565b82601f10620001b257805160ff191683800117855562000157565b8280016001018555821562000157579182015b8281111562000157578251825591602001919060010190620001c5565b8082111562000108576000620001f982826200021a565b50600101620001e2565b5b8082111562000108576000815560010162000204565b50805462000228906200025f565b6000825580601f106200023c57506200025c565b601f0160209004906000526020600020908101906200025c919062000203565b50565b6002810460018216806200027457607f821691505b602082108114156200029657634e487b7160e01b600052602260045260246000fd5b50919050565b6120b780620002ac6000396000f3fe6080604052600436106101145760003560e01c8063900b8b0c116100a0578063bcffb7ca11610064578063bcffb7ca146102f7578063cc8e23941461030a578063e7b5fc3b1461032c578063edea51111461034c578063fde081741461037d57610114565b8063900b8b0c146102685780639752c6df146102885780639af7869f146102ab5780639de989b2146102cd578063a0303c41146102e257610114565b80634042d2d4116100e75780634042d2d4146101c257806356c98c48146101f157806375b4bdec1461021157806375df42c41461023157806378522bc41461025357610114565b80631387974e1461011957806327b1dcee146101535780633a7d280c146101685780633a96fdd714610195575b600080fd5b34801561012557600080fd5b506101396101343660046119ac565b610392565b60405161014a959493929190611c8a565b60405180910390f35b6101666101613660046119ac565b610563565b005b34801561017457600080fd5b50610188610183366004611ada565b6105b8565b60405161014a9190611fb3565b3480156101a157600080fd5b506101b56101b0366004611b15565b6107b9565b60405161014a9190611d94565b3480156101ce57600080fd5b506101e26101dd3660046119ac565b610812565b60405161014a93929190611e00565b3480156101fd57600080fd5b5061013961020c3660046119ac565b610968565b34801561021d57600080fd5b5061016661022c366004611a19565b610b5d565b34801561023d57600080fd5b50610246610ccd565b60405161014a9190611d34565b34801561025f57600080fd5b50610188610da6565b34801561027457600080fd5b506101666102833660046119cd565b610dac565b34801561029457600080fd5b5061029d610e09565b60405161014a929190611c66565b3480156102b757600080fd5b506102c0610ef7565b60405161014a9190611ce7565b3480156102d957600080fd5b506102c0610f67565b3480156102ee57600080fd5b50610188610fd5565b6101666103053660046119ac565b610fdb565b34801561031657600080fd5b5061031f611042565b60405161014a9190611d9f565b34801561033857600080fd5b50610166610347366004611b6c565b6110df565b34801561035857600080fd5b5061036c6103673660046119ac565b6114db565b60405161014a959493929190611db2565b34801561038957600080fd5b506101886116a1565b600260205260009081526040902080546001820180546001600160a01b0390921692916103be90611fff565b80601f01602080910402602001604051908101604052809291908181526020018280546103ea90611fff565b80156104375780601f1061040c57610100808354040283529160200191610437565b820191906000526020600020905b81548152906001019060200180831161041a57829003601f168201915b50505050509080600201805461044c90611fff565b80601f016020809104026020016040519081016040528092919081815260200182805461047890611fff565b80156104c55780601f1061049a576101008083540402835291602001916104c5565b820191906000526020600020905b8154815290600101906020018083116104a857829003601f168201915b5050505050908060030180546104da90611fff565b80601f016020809104026020016040519081016040528092919081815260200182805461050690611fff565b80156105535780601f1061052857610100808354040283529160200191610553565b820191906000526020600020905b81548152906001019060200180831161053657829003601f168201915b5050505050908060040154905085565b6001600160a01b03811660009081526002602052604090203390829060050161058c81846116b7565b506001600160a01b03821660009081526001602052604090206004016105b281836116b7565b50505050565b6040805160208082018352600080835233808252918190529283206001018054919261066d929091906105ea90611fff565b80601f016020809104026020016040519081016040528092919081815260200182805461061690611fff565b80156106635780601f1061063857610100808354040283529160200191610663565b820191906000526020600020905b81548152906001019060200180831161064657829003601f168201915b50505050506107b9565b6106925760405162461bcd60e51b815260040161068990611e35565b60405180910390fd5b6001600160a01b038181166000908152602081905260409020541633146106cb5760405162461bcd60e51b815260040161068990611f7c565b6001600160a01b0381166000908152602081905260409020600101805461077a91906106f690611fff565b80601f016020809104026020016040519081016040528092919081815260200182805461072290611fff565b801561076f5780601f106107445761010080835404028352916020019161076f565b820191906000526020600020905b81548152906001019060200180831161075257829003601f168201915b5050505050846107b9565b6107965760405162461bcd60e51b815260040161068990611e7d565b6001600160a01b031660009081526020819052604090206002015490505b919050565b6000816040516020016107cc9190611c4a565b60405160208183030381529060405280519060200120836040516020016107f39190611c4a565b6040516020818303038152906040528051906020012014905092915050565b6001600160a01b03811660009081526001602081905260408220600381015491810180546060949385939091600290910190839061084f90611fff565b80601f016020809104026020016040519081016040528092919081815260200182805461087b90611fff565b80156108c85780601f1061089d576101008083540402835291602001916108c8565b820191906000526020600020905b8154815290600101906020018083116108ab57829003601f168201915b505050505092508080546108db90611fff565b80601f016020809104026020016040519081016040528092919081815260200182805461090790611fff565b80156109545780601f1061092957610100808354040283529160200191610954565b820191906000526020600020905b81548152906001019060200180831161093757829003601f168201915b505050505090509250925092509193909250565b6001600160a01b0380821660009081526002602081905260408220805460048201546001830180549596606096879687968a9690931694908301926003019184906109b290611fff565b80601f01602080910402602001604051908101604052809291908181526020018280546109de90611fff565b8015610a2b5780601f10610a0057610100808354040283529160200191610a2b565b820191906000526020600020905b815481529060010190602001808311610a0e57829003601f168201915b50505050509350828054610a3e90611fff565b80601f0160208091040260200160405190810160405280929190818152602001828054610a6a90611fff565b8015610ab75780601f10610a8c57610100808354040283529160200191610ab7565b820191906000526020600020905b815481529060010190602001808311610a9a57829003601f168201915b50505050509250818054610aca90611fff565b80601f0160208091040260200160405190810160405280929190818152602001828054610af690611fff565b8015610b435780601f10610b1857610100808354040283529160200191610b43565b820191906000526020600020905b815481529060010190602001808311610b2657829003601f168201915b505050505091509450945094509450945091939590929450565b6001600160a01b038087166000818152602081905260409020549091161415610b985760405162461bcd60e51b815260040161068990611eb4565b6001600160a01b03861660008181526020818152604090912080546001600160a01b03191690921782558251610bd4926001019184019061187b565b506001600160a01b038616600090815260208190526040812060016002909101556009805491610c038361203a565b90915550506001600160a01b038616600081815260026020818152604090922080546001600160a01b03191690931783558651610c46939091019187019061187b565b506001600160a01b03861660009081526002602090815260409091208451610c769260039092019186019061187b565b506001600160a01b03861660009081526002602090815260409091208651610ca69260019092019188019061187b565b50506001600160a01b03909416600090815260026020526040902060040193909355505050565b60606003805480602002602001604051908101604052809291908181526020016000905b82821015610d9d578382906000526020600020018054610d1090611fff565b80601f0160208091040260200160405190810160405280929190818152602001828054610d3c90611fff565b8015610d895780601f10610d5e57610100808354040283529160200191610d89565b820191906000526020600020905b815481529060010190602001808311610d6c57829003601f168201915b505050505081526020019060010190610cf1565b50505050905090565b60095481565b6001600160a01b03821660008181526020818152604090912080546001600160a01b03191690921782558251610de8926001019184019061187b565b50506001600160a01b03166000908152602081905260409020600290810155565b600060606006600a5460028110610e3057634e487b7160e01b600052603260045260246000fd5b0154600a546001600160a01b039091169060049060028110610e6257634e487b7160e01b600052603260045260246000fd5b01808054610e6f90611fff565b80601f0160208091040260200160405190810160405280929190818152602001828054610e9b90611fff565b8015610ee85780601f10610ebd57610100808354040283529160200191610ee8565b820191906000526020600020905b815481529060010190602001808311610ecb57829003601f168201915b50505050509050915091509091565b3360008181526001602090815260409182902060040180548351818402810184019094528084526060949392830182828015610f5c57602002820191906000526020600020905b81546001600160a01b03168152600190910190602001808311610f3e575b505050505091505090565b3360008181526002602090815260409182902060050180548351818402810184019094528084526060949392830182828015610f5c576020028201919060005260206000209081546001600160a01b03168152600190910190602001808311610f3e57505050505091505090565b60085481565b6001600160a01b03166000818152600260209081526040808320600501805460018082018355918552838520018054336001600160a01b03199182168117909255908552818452918420600401805491820181558452919092200180549091169091179055565b3360008181526020819052604090206001018054606092919061106490611fff565b80601f016020809104026020016040519081016040528092919081815260200182805461109090611fff565b8015610f5c5780601f106110b257610100808354040283529160200191610f5c565b820191906000526020600020905b8154815290600101906020018083116110c05750939695505050505050565b6000600a555b6002600a54101561117657611152604051806020016040528060008152506000806006600a546002811061112957634e487b7160e01b600052603260045260246000fd5b01546001600160a01b03168152602081019190915260400160002060010180546105ea90611fff565b1561115c57611176565b600a805490600061116c8361203a565b91905055506110e5565b6002600a54106111985760405162461bcd60e51b815260040161068990611f3b565b6006600a54600281106111bb57634e487b7160e01b600052603260045260246000fd5b0154600a546001600160a01b03909116906000908190600690600281106111f257634e487b7160e01b600052603260045260246000fd5b01546001600160a01b0390811682526020820192909252604001600090812080546001600160a01b03191693909216929092179055600a5482919081906006906002811061125057634e487b7160e01b600052603260045260246000fd5b01546001600160a01b03168152602080820192909252604001600020825161128293600190920192919091019061187b565b5060008060006006600a54600281106112ab57634e487b7160e01b600052603260045260246000fd5b01546001600160a01b03168152602081019190915260400160009081206002019190915560088054916112dd8361203a565b9091555050600380546001810182556000919091528551611325917fc2575a0e9e593c00f959f8c92f12db2869c3395a3b0502d05e2516446f71f85b0190602088019061187b565b5084600160006006600a546002811061134e57634e487b7160e01b600052603260045260246000fd5b01546001600160a01b03168152602080820192909252604001600020825161137c939192919091019061187b565b5083600160006006600a54600281106113a557634e487b7160e01b600052603260045260246000fd5b01546001600160a01b0316815260208082019290925260400160002082516113d793600190920192919091019061187b565b5081600160006006600a546002811061140057634e487b7160e01b600052603260045260246000fd5b01546001600160a01b031681526020810191909152604001600090812060030191909155600a5484916001916006906002811061144d57634e487b7160e01b600052603260045260246000fd5b01546001600160a01b03168152602080820192909252604001600020825161147f93600290920192919091019061187b565b506000600160006006600a54600281106114a957634e487b7160e01b600052603260045260246000fd5b01546001600160a01b03168152602081019190915260400160002060050155600a546114d490611876565b5050505050565b6001602052600090815260409020805481906114f690611fff565b80601f016020809104026020016040519081016040528092919081815260200182805461152290611fff565b801561156f5780601f106115445761010080835404028352916020019161156f565b820191906000526020600020905b81548152906001019060200180831161155257829003601f168201915b50505050509080600101805461158490611fff565b80601f01602080910402602001604051908101604052809291908181526020018280546115b090611fff565b80156115fd5780601f106115d2576101008083540402835291602001916115fd565b820191906000526020600020905b8154815290600101906020018083116115e057829003601f168201915b50505050509080600201805461161290611fff565b80601f016020809104026020016040519081016040528092919081815260200182805461163e90611fff565b801561168b5780601f106116605761010080835404028352916020019161168b565b820191906000526020600020905b81548152906001019060200180831161166e57829003601f168201915b5050505050908060030154908060050154905085565b3360009081526020819052604090206002015490565b60008060005b845481101561172957836001600160a01b03168582815481106116f057634e487b7160e01b600052603260045260246000fd5b6000918252602090912001546001600160a01b031614156117175760019250809150611729565b806117218161203a565b9150506116bd565b50816117475760405162461bcd60e51b815260040161068990611ef8565b835460011415611796578380548061176f57634e487b7160e01b600052603160045260246000fd5b600082815260209020810160001990810180546001600160a01b03191690550190556105b2565b835484906117a690600190611fbc565b815481106117c457634e487b7160e01b600052603260045260246000fd5b9060005260206000200160009054906101000a90046001600160a01b031684828154811061180257634e487b7160e01b600052603260045260246000fd5b9060005260206000200160006101000a8154816001600160a01b0302191690836001600160a01b031602179055508380548061184e57634e487b7160e01b600052603160045260246000fd5b600082815260209020810160001990810180546001600160a01b031916905501905550505050565b600a55565b82805461188790611fff565b90600052602060002090601f0160209004810192826118a957600085556118ef565b82601f106118c257805160ff19168380011785556118ef565b828001600101855582156118ef579182015b828111156118ef5782518255916020019190600101906118d4565b506118fb9291506118ff565b5090565b5b808211156118fb5760008155600101611900565b80356001600160a01b03811681146107b457600080fd5b600082601f83011261193b578081fd5b813567ffffffffffffffff808211156119565761195661206b565b604051601f8301601f19168101602001828111828210171561197a5761197a61206b565b604052828152848301602001861015611991578384fd5b82602086016020830137918201602001929092529392505050565b6000602082840312156119bd578081fd5b6119c682611914565b9392505050565b600080604083850312156119df578081fd5b6119e883611914565b9150602083013567ffffffffffffffff811115611a03578182fd5b611a0f8582860161192b565b9150509250929050565b60008060008060008060c08789031215611a31578182fd5b611a3a87611914565b9550602087013567ffffffffffffffff80821115611a56578384fd5b611a628a838b0161192b565b96506040890135915080821115611a77578384fd5b611a838a838b0161192b565b95506060890135915080821115611a98578384fd5b611aa48a838b0161192b565b94506080890135935060a0890135915080821115611ac0578283fd5b50611acd89828a0161192b565b9150509295509295509295565b600060208284031215611aeb578081fd5b813567ffffffffffffffff811115611b01578182fd5b611b0d8482850161192b565b949350505050565b60008060408385031215611b27578182fd5b823567ffffffffffffffff80821115611b3e578384fd5b611b4a8683870161192b565b93506020850135915080821115611b5f578283fd5b50611a0f8582860161192b565b600080600080600060a08688031215611b83578081fd5b853567ffffffffffffffff80821115611b9a578283fd5b611ba689838a0161192b565b96506020880135915080821115611bbb578283fd5b611bc789838a0161192b565b95506040880135915080821115611bdc578283fd5b611be889838a0161192b565b9450606088013593506080880135915080821115611c04578283fd5b50611c118882890161192b565b9150509295509295909350565b60008151808452611c36816020860160208601611fd3565b601f01601f19169290920160200192915050565b60008251611c5c818460208701611fd3565b9190910192915050565b6001600160a01b0383168152604060208201819052600090611b0d90830184611c1e565b6001600160a01b038616815260a060208201819052600090611cae90830187611c1e565b8281036040840152611cc08187611c1e565b90508281036060840152611cd48186611c1e565b9150508260808301529695505050505050565b6020808252825182820181905260009190848201906040850190845b81811015611d285783516001600160a01b031683529284019291840191600101611d03565b50909695505050505050565b6000602080830181845280855180835260408601915060408482028701019250838701855b82811015611d8757603f19888603018452611d75858351611c1e565b94509285019290850190600101611d59565b5092979650505050505050565b901515815260200190565b6000602082526119c66020830184611c1e565b600060a08252611dc560a0830188611c1e565b8281036020840152611dd78188611c1e565b90508281036040840152611deb8187611c1e565b60608401959095525050608001529392505050565b600060608252611e136060830186611c1e565b8460208401528281036040840152611e2b8185611c1e565b9695505050505050565b60208082526028908201527f4375656e7461206e6f20656e636f6e74726164612e2052656769737472657365604082015267207072696d65726f60c01b606082015260800190565b60208082526019908201527f4c6120636f6e74726173656e61206e6f20636f696e6369646500000000000000604082015260600190565b60208082526024908201527f4573746120646972656363696f6e207961206861207369646f207265676973746040820152637261646160e01b606082015260800190565b60208082526023908201527f446972656363696f6e206e6f20656e636f6e747261646120656e206c61206c6960408201526273746160e81b606082015260800190565b60208082526021908201527f4675657261206465206c617320646972656363696f6e657320706f7369626c656040820152607360f81b606082015260800190565b6020808252601e908201527f4e6f207075656465206163636564657220612065737461206375656e74610000604082015260600190565b90815260200190565b600082821015611fce57611fce612055565b500390565b60005b83811015611fee578181015183820152602001611fd6565b838111156105b25750506000910152565b60028104600182168061201357607f821691505b6020821081141561203457634e487b7160e01b600052602260045260246000fd5b50919050565b600060001982141561204e5761204e612055565b5060010190565b634e487b7160e01b600052601160045260246000fd5b634e487b7160e01b600052604160045260246000fdfea2646970667358221220307d7669972efc00ea1523f9cf09dd5241b7c15105253986571c9a3df5c2e30c64736f6c63430008000033307836376133343361356461613033353063333433303932356630646238636335393239346339373835663763663266663536653866376661323138383031656436307866646362343063633032383131313466333232613533666432336461343932396231346235623763346639626164616630636465396262616464316539353137",
  "immutableReferences": {},
  "source": "// SPDX-License-Identifier: MIT\r\npragma solidity ^0.8.0;\r\n\r\ncontract Health {\r\n    struct user {\r\n        address addr;\r\n        string password;\r\n        uint categ;\r\n    }\r\n\r\n    struct patient {\r\n        string id_patient;\r\n        string name;\r\n        string email;\r\n        uint age;\r\n        address[] doctorAccessList;\r\n        uint recordSize;\r\n    }\r\n\r\n    struct doctor {\r\n        address addr;\r\n        string name;\r\n        string hospital;\r\n        string specialization;\r\n        uint age;\r\n        address[] patientAccessList;\r\n    }\r\n\r\n    mapping(address => user) USERS;\r\n    mapping(address => patient) public PATIENTS;\r\n    mapping(address => doctor) public DOCTORS;\r\n\r\n    string[] id_patient;\r\n\r\n    string[2] private_keys = [\r\n        \"0x67a343a5daa0350c3430925f0db8cc59294c9785f7cf2ff56e8f7fa218801ed6\",\r\n        \"0xfdcb40cc0281114f322a53fd23da4929b14b5b7c4f9badaf0cde9bbadd1e9517\"\r\n    ];\r\n    address[2] addresses = [\r\n        0xfF4980dC904f5b4f092922932e941598ECEc64b4,\r\n        0xC19AB23c7e176C4Fc9cAd15C04B1b65fdEcfF17c\r\n    ];\r\n\r\n    // variable para llevar la cuenta de pacientes y mdicos\r\n    uint public patientCount = 0;\r\n    uint public doctorCount = 0;\r\n\r\n    /* FUNCIONES DE UTILIDAD */\r\n\r\n    function compare(\r\n        string memory str1,\r\n        string memory str2\r\n    ) public pure returns (bool) {\r\n        return\r\n            keccak256(abi.encodePacked(str1)) ==\r\n            keccak256(abi.encodePacked(str2));\r\n    }\r\n\r\n    /* MDULO DE AUTENTICACIN */\r\n\r\n    function add_doctor(\r\n        address _addr,\r\n        string memory _name,\r\n        string memory _hospital,\r\n        string memory _special,\r\n        uint _age,\r\n        string memory _password\r\n    ) public {\r\n        require(\r\n            USERS[_addr].addr != _addr,\r\n            \"Esta direccion ya ha sido registrada\"\r\n        );\r\n        USERS[_addr].addr = _addr;\r\n        USERS[_addr].password = _password;\r\n        USERS[_addr].categ = 1;\r\n\r\n        doctorCount++;\r\n        DOCTORS[_addr].addr = _addr;\r\n        DOCTORS[_addr].hospital = _hospital;\r\n        DOCTORS[_addr].specialization = _special;\r\n        DOCTORS[_addr].name = _name;\r\n        DOCTORS[_addr].age = _age;\r\n    }\r\n\r\n    function add_pharmacy(address _addr, string memory _password) public {\r\n        USERS[_addr].addr = _addr;\r\n        USERS[_addr].password = _password;\r\n        USERS[_addr].categ = 2;\r\n    }\r\n\r\n    function add_patient(\r\n        string memory _id_patient,\r\n        string memory _name,\r\n        string memory _email,\r\n        uint _age,\r\n        string memory _password\r\n    ) public {\r\n        // obtener la direccin y la clave privada del paciente\r\n        i = 0;\r\n        while (i < addresses.length) {\r\n            if (compare(\"\", USERS[addresses[i]].password)) {\r\n                break;\r\n            }\r\n            i++;\r\n        }\r\n\r\n        require(i < addresses.length, \"Fuera de las direcciones posibles\");\r\n        USERS[addresses[i]].addr = addresses[i];\r\n        USERS[addresses[i]].password = _password;\r\n        USERS[addresses[i]].categ = 0;\r\n\r\n        patientCount++;\r\n        id_patient.push(_id_patient);\r\n        PATIENTS[addresses[i]].id_patient = _id_patient;\r\n        PATIENTS[addresses[i]].name = _name;\r\n        PATIENTS[addresses[i]].age = _age;\r\n        PATIENTS[addresses[i]].email = _email;\r\n        PATIENTS[addresses[i]].recordSize = 0;\r\n\r\n        set_i(i);\r\n    }\r\n\r\n    uint i;\r\n\r\n    function set_i(uint x) private {\r\n        i = x;\r\n    }\r\n\r\n    // obtiene la direccin y la clave privada del paciente recin creado\r\n    function get_addressKey() public view returns (address, string memory) {\r\n        return (addresses[i], private_keys[i]);\r\n    }\r\n\r\n    function getPassword() public view returns (string memory) {\r\n        address _addr = msg.sender;\r\n        return USERS[_addr].password;\r\n    }\r\n\r\n    function getRole() public view returns (uint) {\r\n        address _addr = msg.sender;\r\n        return USERS[_addr].categ;\r\n    }\r\n\r\n    function get_existing_id_patients() public view returns (string[] memory) {\r\n        return id_patient;\r\n    }\r\n\r\n    function login(string memory _password) public view returns (uint) {\r\n        address _addr = msg.sender;\r\n        // comprobar si existe una cuenta con la direccin indicada\r\n        require(\r\n            compare(\"\", USERS[_addr].password),\r\n            \"Cuenta no encontrada. Registrese primero\"\r\n        );\r\n        // comprobar si msg.sender es el propietario de la cuenta\r\n        require(\r\n            USERS[_addr].addr == msg.sender,\r\n            \"No puede acceder a esta cuenta\"\r\n        );\r\n        // comprobar si la contrasea almacenada y la introducida coinciden\r\n        require(\r\n            compare(USERS[_addr].password, _password),\r\n            \"La contrasena no coincide\"\r\n        );\r\n        // devolver categora del usuario\r\n        return USERS[_addr].categ;\r\n    }\r\n\r\n    function get_patient(\r\n        address _addr\r\n    ) public view returns (string memory, uint, string memory email) {\r\n        return (\r\n            PATIENTS[_addr].name,\r\n            PATIENTS[_addr].age,\r\n            PATIENTS[_addr].email\r\n        );\r\n    }\r\n\r\n    function get_doctor(\r\n        address _addr\r\n    )\r\n        public\r\n        view\r\n        returns (address, string memory, string memory, string memory, uint)\r\n    {\r\n        return (\r\n            DOCTORS[_addr].addr,\r\n            DOCTORS[_addr].name,\r\n            DOCTORS[_addr].hospital,\r\n            DOCTORS[_addr].specialization,\r\n            DOCTORS[_addr].age\r\n        );\r\n    }\r\n\r\n    /* MDULO DE GESTIN DE ACCESO */\r\n\r\n    function permit_access(address addr) public payable {\r\n        DOCTORS[addr].patientAccessList.push(msg.sender);\r\n        PATIENTS[msg.sender].doctorAccessList.push(addr);\r\n    }\r\n\r\n    function revoke_access(address daddr) public payable {\r\n        address patientAddr = msg.sender;\r\n        address doctorAddr = daddr;\r\n\r\n        // eliminar la direccin del paciente de la lista de acceso del mdico\r\n        address[] storage arr = DOCTORS[doctorAddr].patientAccessList;\r\n        remove_element_from_array(arr, patientAddr);\r\n\r\n        //eliminar la direccin del mdico de la lista de acceso de los pacientes\r\n        arr = PATIENTS[patientAddr].doctorAccessList;\r\n        remove_element_from_array(arr, doctorAddr);\r\n\r\n        // payable(msg.sender).transfer(2 ether);\r\n    }\r\n\r\n    function remove_element_from_array(\r\n        address[] storage arr,\r\n        address addr\r\n    ) private {\r\n        // buscar el ndice de esta direccin en la matriz\r\n        bool found = false;\r\n        uint target_index = 0;\r\n        for (uint j = 0; j < arr.length; j++) {\r\n            if (arr[j] == addr) {\r\n                found = true;\r\n                target_index = j;\r\n                break;\r\n            }\r\n        }\r\n        // si no se encuentra, se revierte\r\n        if (!found) revert(\"Direccion no encontrada en la lista\");\r\n        else {\r\n            if (arr.length == 1) arr.pop();\r\n            else {\r\n                arr[target_index] = arr[arr.length - 1];\r\n                arr.pop();\r\n            }\r\n        }\r\n    }\r\n\r\n    function get_permitted_doctors() public view returns (address[] memory) {\r\n        address addr = msg.sender;\r\n        return PATIENTS[addr].doctorAccessList;\r\n    }\r\n\r\n    function get_accessible_patients() public view returns (address[] memory) {\r\n        address addr = msg.sender;\r\n        return DOCTORS[addr].patientAccessList;\r\n    }\r\n    \r\n}",
  "sourcePath": "C:\\Users\\HP\\Desktop\\TESIS_UTPL\\ghc_blockchain_tesis\\contracts\\Health.sol",
  "compiler": {
    "name": "solc",
    "version": "0.8.0+commit.c7dfd78e.Emscripten.clang"
  },
  "schemaVersion": "3.4.16",
  "updatedAt": "2023-11-14T23:01:09.239Z",
  "networkType": "ethereum",
  "devdoc": {
    "kind": "dev",
    "methods": {},
    "version": 1
  },
  "userdoc": {
    "kind": "user",
    "methods": {},
    "version": 1
  }
}